S01100002E2E2F50726F746575732E73313966
S32D0000C000000000205DC2000011C3000017C300001DC3000023C3000029C3000000000000000000000000000073
S32D0000C028000000002FC3000035C30000000000003BC3000041C30000E9DA0000F5DA000001DB00000DDB0000A8
S32D0000C05019DB000025DB000031DB00003DDB000049DB000055DB000061DB00006DDB000079DB000085DB00001E
S32D0000C07891DB00009DDB0000A9DB0000B5DB0000C1DB0000CDDB0000D9DB0000E5DB0000F1DB0000FDDB000046
S32D0000C0A009DC000015DC000021DC00002DDC000039DC000045DC000051DC00005DDC000069DC000075DC000064
S32D0000C0C881DC00008DDC000099DC0000A5DC0000B1DC0000BDDC0000C9DC0000D5DC0000E1DC0000EDDC00008C
S32D0000C0F0F9DC00007D22010005DD000011DD00001DDD000029DD000035DD000041DD00004DDD000059DD00004D
S32D0000C11865DD000071DD00007DDD000089DD000095DD0000A1DD0000ADDD0000B9DD0000C5DD0000D1DD000049
S32D0000C140DDDD0000E9DD0000F5DD000001DE0000590601000DDE000019DE000025DE000031DE00003DDE000031
S32D0000C16849DE000055DE000061DE00006DDE000079DE000085DE000091DE00009DDE0000A9DE0000B5DE000007
S32D0000C190C1DE0000CDDE0000D9DE00005102010019010100B50101006DD80000F1020100E5DE0000F1DE00008F
S32D0000C1B8FDDE0000E4A2010000000020C8160000E4A201000000FF1F00000000C8160020740400000000FF1FC0
S32D0000C1E00000000080B489B000AFF860B9607A60BB68FB61FB68BB6100237B617A697B689A420BD2BA69131DFB
S32D0000C208BB61FB69191DF96112681A607B6904337B61EFE700BF2437BD4680BC704780B485B000AF786039609E
S32D0000C2307B68FB600023BB60BA683B689A4208D2FB681A1DFA6000221A60BB680433BB60F2E700BF1437BD46FE
S32D0000C25880BC704780B586B000AF72B6234B4CF220521A80214B4DF628121A80204B4FF4E9721A801F4B7B615F
S32D0000C2807B691F4A934214D27B691A1D7A611B683B617B691A1D7A611B68FB607B691A1D7A611B68BB60BA68E9
S32D0000C2A8F9683869FFF79AFFE6E77B69134A93420ED27B691A1D7A611B68FB607B691A1D7A611B68BB60B9688B
S32D0000C2D0F868FFF7A8FFECE70B4B7B600B4A7B681A6007F027FB62B601F088FB00F0E4F8FEE700BF0E20054005
S32D0000C2F800200540BCC10000D4C10000E4C1000008ED00E000C0000080B400AFFEE780B400AFFEE780B400AFF4
S32D0000C320FEE780B400AFFEE780B400AFFEE780B400AFFEE780B400AFFEE780B400AFFEE780B400AFFEE780B426
S32D0000C34800AFFEE7FFFFFFFFFFFFFFFFFFFFFFFFFFFFFFFFFFFFFFFFFFFFFFFFFFFFFFFFFFFFFFFFFFFFFFFF57
S32D0000C370FFFFFFFFFFFFFFFFFFFFFFFFFFFFFFFFFFFFFFFFFFFFFFFFFFFFFFFFFFFFFFFFFFFFFFFFFFFFFFFFC7
S32D0000C398FFFFFFFFFFFFFFFFFFFFFFFFFFFFFFFFFFFFFFFFFFFFFFFFFFFFFFFFFFFFFFFFFFFFFFFFFFFFFFFF9F
S32D0000C3C0FFFFFFFFFFFFFFFFFFFFFFFFFFFFFFFFFFFFFFFFFFFFFFFFFFFFFFFFFFFFFFFFFFFFFFFFFFFFFFFF77
S32D0000C3E8FFFFFFFFFFFFFFFFFFFFFFFFFFFFFFFFFFFFFFFFFFFFFFFFFFFFFFFFFFFFFFFFFFFFFFFFFEFFFFFF50
S32D0000C44010B5054C237833B9044B13B10448AFF300800123237010BDC81600200000000010C4000008B5034B4F
S32D0000C4681BB103490348AFF3008008BD00000000CC16002010C4000080B483B000AFC7E900013A68796821F02B
S32D0000C4900043104619460C37BD4680BC704780B483B000AF78607B6823F0004318460C37BD4680BC704700008F
S32D0000C4B8B0B586B000AF3F4B3C461D460FCD0FC495E8030084E803004FF47F013A4804F02FFE394804F00DFE19
S32D0000C4E00021374804F028FE364805F04DFE03461946334804F055FF334803F079FF02467B6801210C46194667
S32D0000C508104607F041F80346002B01D100231C46E3B2002B0DD02A4803F066FF03461946254804F0C7FE4FF040
S32D0000C5300000264903F026FCDEE72549204804F0FBFD1F4804F0D9FD4FF00002214B224800F04AFA00F082F8EC
S32D0000C55800F0AEFC00F09CF800F03CFE00F010FA00F0D4FB00F070FC022000F069F900F043F9012000F0DCFCCF
S32D0000C58000F0E0F84FF0FF3000F03EFE4FF00000124903F0F7FB012000F036FE4FF40041074804F0C9FD06488C
S32D0000C5A804F0A7FD00F018F8002318461837BD46B0BD00BF949B0100F4190020401A0020E41600200000D03FCE
S32D0000C5D000A5FF00000018400000F0C10000F83F80B500AF01221449144800F0F5FF4FF0FF321149114800F0A2
S32D0000C5F8EFFF4FF00002104B0E4800F0F1F94FF000020E4B0E4800F0EBF901220D49094800F02EFD4FF0000271
S32D0000C6200B4B094800F0E0F94FF00002094B0A4800F0DAF900BF80BD000020410000F0410000284000003E405E
S32D0000C6480000F0C100003442000024400000F03F000070C280B500AF4FF00002084B094800F0BEF94FF0FF32F8
S32D0000C6700749064800F000FD02220649034800F08BFA00BF80BD00BF000035400000F041000034420000C04007
S32D0000C69880B500AF4FF0FF321E491F4800F098FF01221C491C4800F093FF4FF000021B4B194800F095F94FF098
S32D0000C6C00002194B194800F08FF901221349174800F0D2FC4FF00002154B164800F084F94FF0FF320D491148E6
S32D0000C6E800F0C6FC4FF00002114B0B4800F078F94FF000020F4B0B4800F072F901220549084800F0B5FC022252
S32D0000C7100B49064800F040FA00BF80BD0000B4420000F0C100003E40000008400000F0410000424000001642BB
S32D0000C73800001840000024400000904180B500AF01222649264800F043FF4FF0FF322349234800F03DFF4FF07E
S32D0000C7600002224B204800F03FF94FF000024FF080431F4800F038F94FF0FF3219491C4800F07AFC4FF0000204
S32D0000C7881A4B194800F02CF901221449164800F06FFC4FF00002164B134800F021F901220E49114800F064FC45
S32D0000C7B04FF00002104B0C4800F016F94FF000020E4B0B4800F010F94FF0FF320549084800F052FC4FF00002F9
S32D0000C7D8074B054800F004F900BF80BD0000B4420000F0C1000032400000F04100003840000028400000204021
S32D0000C80080B500AF4FF000020B4B0C4800F0ECF84FF0FF320A490A4800F02EFC4FF00002084B074800F0E0F88D
S32D0000C82801220549044800F0D3FE00BF80BD00BF000038400000F0C10000F0410000284080B584B000AF034686
S32D0000C850FB7102224149424800F09EF90023FB60FB79022B76D1FB68032B73DC00F026F90346184600F0F8F9B2
S32D0000C8780346FB71FB79022B58D0022B64DC002B02D0012B35D05FE001223449324800F0EFFB4FF00002324B88
S32D0000C8A02F4800F0A1F84FF0FF322E492C4800F0E3FB02222D492A4800F06EF94FF00002294B2B4800F090F83E
S32D0000C8C84FF000024FF08043284800F089F801222249214800F0CCFB4FF00002244B234800F07EF84FF0FF327F
S32D0000C8F01C491B4800F0C0FB2BE04FF0FF321949174800F0B9FB4FF00002174B144800F06BF80122134912489C
S32D0000C91800F0AEFB022213490F4800F039F94FF000020F4B104800F05BF80EE01149124804F020FD4FF0000235
S32D0000C940104B0C4800F050F8FB680133FB6000E000BF85E700BF1037BD4680BD000090410000F0410000B442A7
S32D0000C9680000F03F0000C040000070420000F0C100000840AC9B0100F41900200000204080B500AF4FF00002CD
S32D0000C9900E4B0F4800F028F84FF0FF320D490D4800F06AFB4FF000020B4B0A4800F01CF801220A49074800F0A7
S32D0000C9B85FFB4FF00002084B034800F011F800BF80BD00BF000008400000F0C10000F041000010400000344373
S32D0000C9E0000018400000000090B58BB000AFF860C7E900232CA3D3E90023D7E9000105F0B5FF02460B46104670
S32D0000CA08194602460B4605F0F7FD02460B461046194606F057FA0346BB61234803F0C2FC224803F0BFFCF86891
S32D0000CA3000F052FA7861786900F0F2FC00237B621B4803F0A1FC04461A4803F09DFC034623443B620023FB610D
S32D0000CA583A6ABB699A421ADAFB69154A934216DC3A6A7B6A9A4203D1FB690133FB6101E00023FB613B6A7B627F
S32D0000CA800B4803F081FC04460A4803F07DFC034623443B62E0E700F0ABFC00BF2C37BD4690BD00BFAFF30080BF
S32D0000CAA875524D20983E444004170020081700209F86010080B500AF02224FF08241044800F066F8034803F050
S32D0000CAD08FFC0346184680BD0000F041E416002080B584B000AF78600B46FB70FB78184600F0C2FB0346FB739D
S32D0000CAF8FB7B042B44D801A252F823F019CB000047CB000075CB00005FCB000031CB00004FF08041786806F01D
S32D0000CB202FFC03464FF0FF31184600F0E7FD2CE04FF08041786806F023FC03460121184600F0DCFD21E04FF0FF
S32D0000CB488041786806F018FC03464FF0FF31184600F0FAFD15E04FF08041786806F00CFC03460121184600F08B
S32D0000CB70EFFD0AE04FF08041786806F001FC0346184600F04DFC00E000BFFB7B18461037BD4680BD0000000014
S32D0000CB9890B58BB000AFF860B9601346FB71B86805F088FE2AA3D3E9002305F0DBFE02460B461046194606F0B1
S32D0000CBC085F903467B61264803F0F0FB254803F0EDFBFB7987F82730214803F0D5FB0446204803F0D1FB0346E0
S32D0000CBE823443B620023FB610023BB613A6A7B699A4222DABB69C72B1FDC3A6AFB699A4203D1BB690133BB61C0
S32D0000CC1001E00023BB613B6AFB61114803F0B4FB0446104803F0B0FB034623443B6297F827301946F868FFF7B2
S32D0000CC3853FF034687F82730D8E700F0D5FB97F8273018462C37BD4690BD00BFAFF3008075524D20983E544068
S32D0000CC600417002008170020B0B588B000AF7860194B07F108041D460FCD0FC495E8030084E803003B6919469C
S32D0000CC88786806F063FC0346002B09D07B691946786806F079FC0346002B01D0012312E0BB691946786806F0BA
S32D0000CCB051FC0346002B09D0FB691946786806F067FC0346002B01D0002300E0022318462037BD46B0BD00BF6F
S32D0000CCD8949B010080B500AF4FF00002024B0348FFF77EFE00BF80BD000020400000F0C180B500AF4FF000029D
S32D0000CD00024B0348FFF770FE00BF80BD00002040000016C280B582B000AF00237B60FFF7EBFF434805F054FB12
S32D0000CD280346002B04D17B68042B01DC012300E00023002B10D07B6801337B604FF000023A4B3B48FFF74CFEF8
S32D0000CD5001223A49384800F08FF9FFF7CDFFE0E7786805F099FD4FF00002354B05F0FEFD02460B461046194624
S32D0000CD7806F0F0F803464FF0FF3219462C4800F077F94FF000022D4B2948FFF729FE00237B6001222A4926487A
S32D0000CDA000F06AF94FF00002284B2348FFF71CFE4FF0FF322449204800F05EF9FFF78EFF1B4805F005FB034633
S32D0000CDC8012B04D17B68042B01DC012300E00023002B10D07B6801337B604FF00002134B1348FFF7FDFD01221C
S32D0000CDF01249114800F040F9FFF770FFE0E7786805F04AFD4FF000020D4B05F0AFFD02460B461046194606F072
S32D0000CE18A1F803464FF0FF321946054800F028F900BF0837BD4680BD5C1A0020000018400000F041000020411F
S32D0000CE4000002440000010400000B4420000F83F80B500AF4FF00002104B1148FFF7C4FD012210490E4800F091
S32D0000CE6807F94FF000020E4B0B48FFF7B9FD01220C49094800F0FCF84FF000020A4B0B48FFF7AEFD4FF000028B
S32D0000CE90054B0348FFF7A8FD00BF80BD000008400000F04100003442000028400000B442000038400000F0C1CC
S32D0000CEB880B500AF4FF00002034B4FF00000034900F018FB00BF80BD008066C000003440B0B582B000AF786017
S32D0000CEE0124805F051F90346184605F0E7FC02460B464FF000000E4905F062FE02460B4614461D46786805F05D
S32D0000CF08D9FC02460B462046294605F02BFD02460B461046194606F01DF8034618460837BD46B0BD401A002072
S32D0000CF30000027400000000090B58BB000AF0346FB71454BBB61B86905F0B8FC40A3D3E9002305F00BFD02460B
S32D0000CF580B461046194602460B4605F04DFB02460B461046194605F0ADFF03467B61394803F018FA384803F0C2
S32D0000CF8015FA97F90730184605F086FC4FF00002344B05F0EBFC02460B461046194605F0DDFF03461846FFF780
S32D0000CFA897FF38612E4BFB6039692E4801F028F8F968386906F02CF9034619462A4801F01FF8244803F0DCF9BC
S32D0000CFD00446234803F0D8F9034623447B6200233B620023FB611D4803F0CEF904461C4803F0CAF903462344BB
S32D0000CFF87A699A4205DDFB691C4A934201DC012300E00023002B16D07A6A3B6A9A4203D1FB690133FB6101E0A8
S32D0000D0200023FB617B6A3B620C4803F0ADF904460B4803F0A9F9034623447B62D3E700F0D7F900BF2C37BD4696
S32D0000D04890BD00BFAFF3008075524D20983E44400000A040041700200817002000004940CDCC8C3FF41600208D
S32D0000D070FC1600209F860100B0B58CB000AFF860B9601346FB714E4B3B624E49B86806F077F90346FB61F9695A
S32D0000D098386A06F0BDF80346184605F00BFC42A3D3E9002305F05EFC02460B461046194602460B4605F0A0FAF1
S32D0000D0C002460B461046194605F000FF0346BB613D4803F06BF93D4803F068F997F90730184606F045F8034645
S32D0000D0E8F968184606F094F803461846FFF7F0FE7861786905F0DEFB2DA3D3E9002305F031FC02460B46144602
S32D0000D11083F000452046294605F020FF034619462B4800F071FF79692A4800F06DFF264803F02AF904462548EA
S32D0000D13803F026F903462344FB620023BB6200237B621F4803F01CF904461E4803F018F903462344BA699A4298
S32D0000D16005DD7B6A1C4A934201DC012300E00023002B16D0FA6ABB6A9A4203D17B6A01337B6201E000237B627A
S32D0000D188FB6ABB620E4803F0FBF804460D4803F0F7F803462344FB62D3E700F025F900BF3037BD46B0BD00BF10
S32D0000D1B075524D20983E4440CDCCCCCCCCCCF03F5E36B6410000B4430417002008170020F4160020FC16002073
S32D0000D1D89F86010080B500AF064800F045F94FF00002054B0548FFF7FBFB024800F03CF900BF80BD00003443F7
S32D0000D200000008400000F0C180B582B000AF0346FB711448FFF760FE03461946124800F0F3FE97F90730184684
S32D0000D22805F036FB4FF000020E4B05F09BFB02460B46104619464FF000020B4B05F092FB02460B464FF000004E
S32D0000D250084900F053F900F0CBF800BF0837BD4680BD00BF00002041F4160020008076400000144000004940D5
S32D0000D27880B586B000AF0346FB71514803F0B4F87861504803F0B0F838614F4803F0ACF8F860786905F00EFB77
S32D0000D2A045A3D3E9002305F0F1FD0346002B18D0F86805F003FB42A3D3E9002305F0C8FD0346002B0DD04349AC
S32D0000D2C8434804F057F83E4803F08EF8034619463F4804F062F8012366E0F86805F0EAFA35A3D3E9002305F09F
S32D0000D2F0CDFD0346002B18D0786905F0DFFA2EA3D3E9002305F0A4FD0346002B0DD03349314804F033F82E481A
S32D0000D31803F06AF8034619462D4804F03EF8032342E0786905F0C6FA21A3D3E9002305F08BFD0346002B13D0F6
S32D0000D340F86805F0BBFA1EA3D3E9002305F080FD0346002B08D0FB79012B05D120491E4804F00CF8002323E0F4
S32D0000D368F86805F0A7FA14A3D3E9002305F06CFD0346002B13D0786905F09CFA0CA3D3E9002305F061FD0346C0
S32D0000D390002B08D0FB79032B05D112490E4803F0EDFF042304E010490B4803F0E7FF022318461837BD4680BDC2
S32D0000D3B885EB51B81E8507409A99999999990740E8160020EC160020F0160020B09B0100F4190020B89B0100D3
S32D0000D3E0C49B0100D09B0100DC9B01000000000080B500AF084800F0C5FD084800F0C2FD03A1D1E9000102F0A5
S32D0000D408BDFC00BF80BD00BF9A9999999999C93FF4160020FC16002080B582B000AF7860786805F047FA0CA3D4
S32D0000D430D3E9002305F09AFA02460B461046194605F08CFD03461946074800F0DDFD7968064800F0D9FD00BF25
S32D0000D4580837BD4680BD00BFCDCCCCCCCCCCF03FF4160020FC16002080B586B000AF78601C4B7B617868FFF709
S32D0000D4800EF803461946786805F07AFF03467969184605F0C1FE03461846FFF71DFD38611349786805F06CFF59
S32D0000D4A80346FB6002F090FC02460B461046194605F050FD0346BB60F9680C4803F06DFF39690B4800F09CFDAE
S32D0000D4D0F868FEF7E4FF0346184602F033FC064800F050FD00BF1837BD4680BD0000204100002842F41900205D
S32D0000D4F80C17002080B588B000AFC7E90201C7E90023D7E90001FEF7B7FF02460B46D7E9000105F051FB0246D2
S32D0000D5200B4610461946D7E9022305F01FFA02460B461046194605F011FD03461846FFF7CBFCF861F86905F080
S32D0000D548B9F94FF000021D4B05F036FB02460B46104619464FF00002194B05F003FA02460B46D7E9000105F000
S32D0000D57027FB02460B461046194605F0EFFC0346BB6102F025FC02460B461046194605F0E5FC03467B61B9695A
S32D0000D5980C4803F002FFF9690B4800F031FDB869FEF779FF0346184602F0C8FB064800F0E5FC00BF2037BD4628
S32D0000D5C080BD00BF0000244000004540F41900200C1700200000000090B58DB000AFF860B9601346FB713E4BF8
S32D0000D5E83B623E49B86805F0C7FE0346FB61F969386A05F00DFE0346184605F05BF934A3D3E9002305F0AEF92C
S32D0000D61002460B461046194605F058FC0346BB61314802F0C3FE314802F0C0FEF868FFF753FC786197F9073056
S32D0000D638B3F1FF3F02D0012B05D009E079692A4800F0DEFC04E07969284800F0D9FC00BF234802F095FE044614
S32D0000D660224802F091FE03462344FB620023BB6200237B621C4802F087FE04461B4802F083FE03462344BA6996
S32D0000D6889A4205DD7B6A1A4A934201DC012300E00023002B16D0FA6ABB6A9A4203D17B6A01337B6201E0002350
S32D0000D6B07B62FB6ABB620C4802F066FE04460B4802F062FE03462344FB62D3E7FFF790FE00BF3437BD4690BD8F
S32D0000D6D875524D20983E44405E3636420000B4430417002008170020F4160020FC1600209F86010080B584B02E
S32D0000D70000AF78600B46FB707868FFF7E5FBF86097F90330B3F1FF3F02D0012B08D00FE0094800F02FFCF96873
S32D0000D728084800F06DFC07E0064800F027FCF968034800F065FC00BF00BF1037BD4680BDFC160020F416002084
S32D0000D75080B584B000AF78600B46FB707868FFF7BBFBF86097F90330B3F1FF3F02D0012B0FD01DE04FF080419C
S32D0000D778F86805F001FE034619460D4800F040FCF9680C4800F03CFC0EE04FF08041F86805F0F2FD034619464F
S32D0000D7A0064800F031FCF968034800F02DFC00BF00BF1037BD4680BDFC160020F416002080B582B000AF7860DC
S32D0000D7C839607B68012B2BD13B684FF6FF72934226D10821144802F0F7FD0021134802F0F3FD0121124802F033
S32D0000D7F0EFFD0221114802F0EBFD114A0021114800F082FB0E4A01210F4800F07DFB05210E4802F00BFB1921A0
S32D0000D8180D4802F007FB0D4A02210D4800F070FB00BF0837BD4680BDE4160020E8160020EC160020F0160020B1
S32D0000D84000001041F4160020FC16002004170020081700206666E6400C17002080B500AF4FF6FF710120FFF7AE
S32D0000D868ABFF80BD80B500AF0F4BD3F8A03003F48053002B14BF01230023DBB2002B10D0094BD3F8A030084AEA
S32D0000D89023F48053C2F8A030064804F025FE064B1B68054A23F40053136000BF80BD00BF00C004406C1A00202C
S32D0000D8B8C0F00F4080B400AF124B4FF480725A63114B5B69104A43F4005353610E4B1B680D4A43F40053136029
S32D0000D8E00A4B0C4A1A630C4BD3F888310A4A43F08063C2F88831084B9B68074A43F08063936000BFBD4680BC8C
S32D0000D908704700BF00C00440C0F00F4003010A0000E100E080B400AF334B00225A70324B98221A70304B9B790C
S32D0000D930DBB203F01003002B14BF01230023DBB2002B00D0F2E72A4B9B79DBB29B08DBB203F00303022B14BF51
S32D0000D95801230023DBB2002B00D0F0E7224B18221A71214B00225A71204B03F580531A461F4B53641C4B5422DC
S32D0000D9805A711B4B9B79DBB203F02003002B0CBF01230023DBB2002B00D0F2E7144B9B79DBB203F04003002B92
S32D0000D9A80CBF01230023DBB2002B00D0F2E70E4B1B78DBB20C4A03F03F03DBB213700A4B9B79DBB29B08DBB2A4
S32D0000D9D003F00303032B14BF01230023DBB2002B00D0F0E700231846BD4680BC704700BF004006400070044019
S32D0000D9F80000130180B500AF314B03F580539B6B2F4A43F4785302F580529363FFF752FFFFF780FF2B4B5822D6
S32D0000DA201A602A4B1B684FF47A7202FB03F3284A1360274B1B681A46234B03F580535B6C1B0E03F00F030133A8
S32D0000DA48B2FBF3F31A46214B1A601D4B03F58053DB6B1B4A43F0225302F58052D363184B03F580531B6B164A3E
S32D0000DA7043F0006302F580521363174B4FF480721A61642002F034F8134B5B69124A23F010035361104B00222A
S32D0000DA981A600F4B10225A610E4803F0B7F902F08BFD02F0E9FD0C4802F080F80B4804F06BFD4FF4FA6002F058
S32D0000DAC02BF900BF80BD00BF00700440401900203C1900204419002000D00340F419002038190020DC1A002073
S32D0000DAE880B500AFFEF72BFC00BF80BD80B500AFFEF725FC00BF80BD80B500AFFEF71FFC00BF80BD80B500AF4A
S32D0000DB10FEF719FC00BF80BD80B500AFFEF713FC00BF80BD80B500AFFEF70DFC00BF80BD80B500AFFEF707FC43
S32D0000DB3800BF80BD80B500AFFEF701FC00BF80BD80B500AFFEF7FBFB00BF80BD80B500AFFEF7F5FB00BF80BD61
S32D0000DB6080B500AFFEF7EFFB00BF80BD80B500AFFEF7E9FB00BF80BD80B500AFFEF7E3FB00BF80BD80B500AF88
S32D0000DB88FEF7DDFB00BF80BD80B500AFFEF7D7FB00BF80BD80B500AFFEF7D1FB00BF80BD80B500AFFEF7CBFBBF
S32D0000DBB000BF80BD80B500AFFEF7C5FB00BF80BD80B500AFFEF7BFFB00BF80BD80B500AFFEF7B9FB00BF80BD9E
S32D0000DBD880B500AFFEF7B3FB00BF80BD80B500AFFEF7ADFB00BF80BD80B500AFFEF7A7FB00BF80BD80B500AFC4
S32D0000DC00FEF7A1FB00BF80BD80B500AFFEF79BFB00BF80BD80B500AFFEF795FB00BF80BD80B500AFFEF78FFB36
S32D0000DC2800BF80BD80B500AFFEF789FB00BF80BD80B500AFFEF783FB00BF80BD80B500AFFEF77DFB00BF80BDD9
S32D0000DC5080B500AFFEF777FB00BF80BD80B500AFFEF771FB00BF80BD80B500AFFEF76BFB00BF80BD80B500AFFF
S32D0000DC78FEF765FB00BF80BD80B500AFFEF75FFB00BF80BD80B500AFFEF759FB00BF80BD80B500AFFEF753FBAE
S32D0000DCA000BF80BD80B500AFFEF74DFB00BF80BD80B500AFFEF747FB00BF80BD80B500AFFEF741FB00BF80BD15
S32D0000DCC880B500AFFEF73BFB00BF80BD80B500AFFEF735FB00BF80BD80B500AFFEF72FFB00BF80BD80B500AF3B
S32D0000DCF0FEF729FB00BF80BD80B500AFFEF723FB00BF80BD80B500AFFEF71DFB00BF80BD80B500AFFEF717FB26
S32D0000DD1800BF80BD80B500AFFEF711FB00BF80BD80B500AFFEF70BFB00BF80BD80B500AFFEF705FB00BF80BD50
S32D0000DD4080B500AFFEF7FFFA00BF80BD80B500AFFEF7F9FA00BF80BD80B500AFFEF7F3FA00BF80BD80B500AF79
S32D0000DD68FEF7EDFA00BF80BD80B500AFFEF7E7FA00BF80BD80B500AFFEF7E1FA00BF80BD80B500AFFEF7DBFAA1
S32D0000DD9000BF80BD80B500AFFEF7D5FA00BF80BD80B500AFFEF7CFFA00BF80BD80B500AFFEF7C9FA00BF80BD8F
S32D0000DDB880B500AFFEF7C3FA00BF80BD80B500AFFEF7BDFA00BF80BD80B500AFFEF7B7FA00BF80BD80B500AFB5
S32D0000DDE0FEF7B1FA00BF80BD80B500AFFEF7ABFA00BF80BD80B500AFFEF7A5FA00BF80BD80B500AFFEF79FFA19
S32D0000DE0800BF80BD80B500AFFEF799FA00BF80BD80B500AFFEF793FA00BF80BD80B500AFFEF78DFA00BF80BDCA
S32D0000DE3080B500AFFEF787FA00BF80BD80B500AFFEF781FA00BF80BD80B500AFFEF77BFA00BF80BD80B500AFF0
S32D0000DE58FEF775FA00BF80BD80B500AFFEF76FFA00BF80BD80B500AFFEF769FA00BF80BD80B500AFFEF763FA90
S32D0000DE8000BF80BD80B500AFFEF75DFA00BF80BD80B500AFFEF757FA00BF80BD80B500AFFEF751FA00BF80BD06
S32D0000DEA880B500AFFEF74BFA00BF80BD80B500AFFEF745FA00BF80BD80B500AFFEF73FFA00BF80BD80B500AF2C
S32D0000DED0FEF739FA00BF80BD80B500AFFEF733FA00BF80BD80B500AFFEF72DFA00BF80BD80B500AFFEF727FA08
S32D0000DEF800BF80BD80B500AFFEF721FA00BF80BD80B584B000AFF8600B467A60FB72FB68FA7A1A71FB68002221
S32D0000DF205A711749786805F033FB0346002B02D0134B7B600AE04FF07E51786805F014FB0346002B02D04FF0C5
S32D0000DF487E537B60786804F0B5FC09A3D3E9002304F008FD02460B461046194604F0FAFF0246FB681A60FB6833
S32D0000DF7018461037BD4680BDABAAAAAAAAAA20400000404180B582B000AF78607B685B79002B09D07B68002212
S32D0000DF985A717B6819791E230022034801F040FE00BF0837BD4680BD3819002080B584B000AF786039603B6863
S32D0000DFC07F2B02DD7F23FB7308E03B6813F1800F02DA8023FB7301E03B68FB737B685B79FA7B9A4209D07B68D9
S32D0000DFE8FA7B5A717B681979FA7B1E23034801F017FE00BF1037BD4680BD00BF38190020B0B584B000AF7860B9
S32D0000E01039603749386805F09DFA0346002B02D0334B3B6008E03349386805F0B1FA0346002B01D02F4B3B6040
S32D0000E038386804F03FFC04460D467B681B68184604F038FC4FF00002294B04F0B5FD02460B462046294604F0A5
S32D0000E06085FC02460B461046194604F077FF03463B604FF00001386805F080FA0346002B10D0386804F01AFC28
S32D0000E08817A3D3E9002304F06DFC02460B461046194604F017FF0346FB6018E0386804F009FC4FF00002134B48
S32D0000E0B004F05CFC02460B46104619464FF000020D4B04F07DFD02460B461046194604F0FDFE0346FB60F9685F
S32D0000E0D87868FFF76BFF00BF1037BD46B0BD00BF52B81E85EB51F43F0000C8C20000C8420000594000006040BC
S32D0000E10080B483B000AF03460A46FB711346BB71BB79002B03D1134B00221A7002E0114B01221A703823FB7162
S32D0000E1280E4B1A78FB791343FB710D4B9B78DBB20B4A43F01003DBB29370094B9B78DBB2074A43F02003DBB25D
S32D0000E1509370054AFB79137100BF0C37BD4680BC704700BF141700200060064080B483B000AF01237B607B68B7
S32D0000E178312B04DC00BF7B6801337B60F7E700BF0C37BD4680BC704780B582B000AF03460A46FB711346BB7116
S32D0000E1A0134B1B7800211846FFF7AAFF00F024F8104AFB79137100F01FF80E4ABB79137100F01AF80B4B9B7862
S32D0000E1C8DBB20A4A23F02003DBB29370074B9B78DBB2064A23F01003DBB29370FFF7C2FF00BF0837BD4680BD95
S32D0000E1F0151700200060064080B483B000AF174B1B78002B24D100237B60154BDB78DBB203F00203002B0CBFB8
S32D0000E21801230023DBB2002B0DD07B6842F21072934203DD0B4B01221A7004E07B6801337B6000BFE5E7084BF7
S32D0000E240DB78DBB2064A43F00203DBB2D37000E000BF0C37BD4680BC704700BF161700200060064080B582B087
S32D0000E26800AF0346FB71FB79184600F03BF800BF0837BD4680BD80B582B000AF03460A46FB711346BB7100F061
S32D0000E29011F8FB795B00DBB21846FFF7E3FFBB791846FFF7DFFF00F013F800BF0837BD4680BD000080B400AF43
S32D0000E2B8044B9B68034A43F48013936000BFBD4680BC704740F00F4080B400AF044B5B68034A43F480135360E9
S32D0000E2E000BFBD4680BC704740F00F4080B485B000AF0346FB710023BB73164BDB6A03F00043012B0CBF0123C7
S32D0000E3080023DBB2002B03D0FB7B0133FB73F0E70E4BDB6A0D4A43F00043D3620B4AFB7953630A4BDB6A03F49A
S32D0000E3300033002B0CBF01230023DBB2002B00D0F3E7044B9B6BBB73BB7B18461437BD4680BC704700C00A408B
S32D0000E35880B582B000AF204B03F580531B6B1E4A43F4805302F5805213631C4B4FF480721A651B4B5B691A4A6B
S32D0000E38043F480135361FFF7A3FF164B4FF400725A65144B4FF400729A65124B4FF40072DA65124B124A1A60ED
S32D0000E3A8104B124ADA6000237B607B68092B06DCFF20FFF753FF7B6801337B60F5E704A1D1E9000101F0DAFC03
S32D0000E3D000BF0837BD4680BD9A9999999999B93F0070044000A0044040F00F4000C00A40000C00800500003E62
S32D0000E3F890B486B000AFF860B9607A60FB68534A93420AD1524B03F580535B6B504A43F4806302F58052536372
S32D0000E42045E0FB684D4A93420AD14B4B03F580535B6B494A43F4006302F58052536336E0FB68474A93420AD172
S32D0000E448434B03F580535B6B414A43F4805302F58052536327E0FB68404A93420AD13C4B03F580535B6B3A4A33
S32D0000E47043F4005302F58052536318E0FB683A4A93420AD1344B03F580539B6A324A43F4806302F58052936243
S32D0000E49809E02F4B03F580539B6A2D4A43F4006302F580529362FB68DB78DBB223F00C03DAB2FB68DA70FB6853
S32D0000E4C000229A70BB684FF47A7203FB02F27B681B0192FBF3F39CB2FB681B78DBB223F01F03FB75230A9BB25C
S32D0000E4E8DBB203F01F03DAB2FB7D1343DAB2FB681A70E2B2FB685A70BB684FF4FA4203FB02F27B681B0192FBB0
S32D0000E510F3F39AB263019BB2D31A9CB2FB689B7ADBB223F01F03FB75E3B203F01F03DAB2FB7D1343DAB2FB6822
S32D0000E5389A72FB68DB78DBB243F00C03DAB2FB68DA7000BF1837BD4690BC704700A006400070044000B0064047
S32D0000E56000C0064000D0064000A00E4080B483B000AF78607B681B79DBB203F02003002B0CBF01230023DBB2B1
S32D0000E588002B00D0F2E77B68DB79DBB218460C37BD4680BC704780B483B000AF78600B46FB707B681B79DBB288
S32D0000E5B05BB2DB43DBB2DB09DBB2002B00D0F4E77B68FA78DA7100BF0C37BD4680BC704780B487B000AFF86034
S32D0000E5D8B9607A60FB687B617B685A1E7A60002B14BF01230023DBB2002B06D07B695A1C7A61BA68D2B21A7076
S32D0000E600EEE700BF1C37BD4680BC704780B584B000AF786039607B681B6BFB60FA683B689A4252D07B681B7948
S32D0000E628002B35D07B6858787B6803F134010123FA6801F0F7F80346002B14BF01230023DBB2002B01D0012334
S32D0000E6503CE07B6800221A717B685A6A7B681B6A1344FA689A4217D27B68DB78FB72FB7A012B11D97B681B6ACD
S32D0000E678FA681344FB607B6858787B6803F134010123FA6801F0CEF8FB7A013BFB72EAE73B68002B15D07B68DF
S32D0000E6A058787B6803F1340101233A6800F0DAFF0346002B14BF01230023DBB2002B01D0012303E07B683A683E
S32D0000E6C81A63002318461037BD4680BD80B584B000AF786000217868FFF794FF0346FB73FB7B002B40F093808A
S32D0000E6F07B681B78032B7DD17B685B79002B79D07B6800221A637B6834334FF4007200211846FFF75DFF7B68AA
S32D0000E718552283F832227B68AA2283F833227B68522283F834207B68522283F835207B68612283F836207B68A7
S32D0000E740412283F837207B68722283F818227B68722283F819227B68412283F81A227B68612283F81B227B681F
S32D0000E7681B69DAB27B6883F81C227B681B699BB21B0A9BB2DAB27B6883F81D227B681B691B0CDAB27B6883F810
S32D0000E7901E227B681B691B0EDAB27B6883F81F227B68DB68DAB27B6883F820227B68DB689BB21B0A9BB2DAB29D
S32D0000E7B87B6883F821227B68DB681B0CDAB27B6883F822227B68DB681B0EDAB27B6883F823227B6858787B6803
S32D0000E7E003F134017B685A69012301F01FF87B6800225A717B685B7800220021184601F0E1F80346002B14BFD8
S32D0000E80801230023DBB2002B01D00123FB73FB7B18461037BD4680BD80B582B000AF78600B467B807B68002BDD
S32D0000E83008D07B681B78002B04D07B68DB887A889A4201D0092311E07B685B78184601F03BF9034603F00103E2
S32D0000E858002B14BF01230023DBB2002B01D0032300E0002318460837BD4680BD80B586B000AF78607B681A6867
S32D0000E8807B689B8819461046FFF7CAFF0346FB75FB7D002B40F0AC807B689B7903F02003002B00F0A5807B6808
S32D0000E8A89B7903F04003002B1BD07B681B6858787B6803F128017B689A69012300F0B2FF0346002B14BF012396
S32D0000E8D00023DBB2002B01D001238AE07B689B7923F04003DAB27B689A717B681A687B68DB6919461046FFF7E2
S32D0000E8F889FE0346FB75FB7D002B75D17B681B6A3B613B690B331A783B690B3342F02002D2B21A707B68DA68E8
S32D0000E9203B691C33D2B21A707B68DB689BB21B0A9AB23B691D33D2B21A707B68DB681A0C3B691E33D2B21A7093
S32D0000E9487B68DB681A0E3B691F33D2B21A707B681A693B691A33D2B21A707B681B699BB21B0A9AB23B691B33D3
S32D0000E970D2B21A707B681B691A0C3B691433D2B21A707B681B691B0C9BB21B0A9AB23B691533D2B21A7000237C
S32D0000E998FB603B691633FA68D2B21A70FB689BB21B0A9AB23B691733D2B21A70FB681A0C3B691833D2B21A70F6
S32D0000E9C0FB681A0E3B691933D2B21A707B689B7923F02003DAB27B689A717B681B6801221A717B681B68184621
S32D0000E9E8FFF774FE0346FB75FB7D18461837BD4680BD80B584B000AF78607868FFF736FF0346FB73FB7B002B28
S32D0000EA1002D17B6800221A60FB7B18461037BD4680BD000080B588B000AF7860396080233B610F23FB604FF093
S32D0000EA38FF337B610223FB61FB69B3F5807F23D80123BB61BB69102B1AD8FB69BA6902FB03F33A6803FB02F27C
S32D0000EA607B68D31ABB60BB68002B09DBBB687A699A4205D9BB687B61FB693B61BB69FB60BB690133BB61E1E7F1
S32D0000EA88FB695B00FB61D7E71D4BDB6A1C4A23F00803D3621A4BDB6A23F47F2323F47F63BB613B695B081B0285
S32D0000EAB09AB2FB68013B1B01DBB21A43BB691343114A43F46023D3620F4B5B6A03F00803002B0CBF0123002329
S32D0000EAD8DBB2002B03D00A2001F01AF9F0E7084BDB6A074A43F00803D362054B1B6B044A43F48013136300BF01
S32D0000EB002037BD4680BD00BF00100B4080B582B000AF786039607B6800221A60414B424ADA62404BDB6A03F019
S32D0000EB288073002B14BF01230023DBB2002B00D0F3E73A4B0022C3F8C020384B4FF481325A60364B28229A62E9
S32D0000EB50344B4FF001125A643B689B6833491846FFF760FF2F4B5B6A03F00303002B14BF01230023DBB2002BFE
S32D0000EB7800D0F3E72C4B40F243421A602A4B40F243425A60284B4FF488629A60264B40F24342DA60244B40F29A
S32D0000EBA043421A61224B40F243425A61214B03F580531B6B1F4A43F4003302F580521363184B4FF6FF721A6303
S32D0000EBC8164B1B4A5A63154BDB6A144A43F00063D362124BDB6A03F00063002B14BF01230023DBB2002B00D009
S32D0000EBF0F3E70C4B5B6A03F48033002B14BF01230023DBB2002B02D07B6801221A60054B1B6B044A43F080032E
S32D0000EC181363002318460837BD4680BD00100B400080000160CC050000D0044000700440B3007F0080B400AF6E
S32D0000EC40064B5A6A40F207331340002B14BF01230023DBB21846BD4680BC704700100B4080B485B000AF786061
S32D0000EC68074B1B6B7A681340FB60FB68002B00D1F6E7FB6818461437BD4680BC704700BF00100B4080B584B055
S32D0000EC9000AF78607B681B7803F03F03764A52F82330FB60FB68002B05D17B681B78002B01D00123DCE0714BFA
S32D0000ECB81B6B704A43F0800313636E4B5B6A03F00103002B14BF01230023DBB2002B00D0F3E7684A7B685B684E
S32D0000ECE09360FB6823F44003FB607B685B789B0503F44003FA681343FB607B685B78022B03D1FB6843F40013F4
S32D0000ED08FB607B685B78042B16D1FB6803F44033B3F5003F08D1FB6823F44033FB60FB6843F44033FB6007E092
S32D0000ED30FB6823F44033FB60FB6843F40033FB604E4B5B684D4A9BB253607B68DB68002B2AD0FB6803F440333A
S32D0000ED58B3F5403F03D0FB6843F40013FB607B681B7A002B03D0FB6843F01003FB607B68DB68012B03D9FB6880
S32D0000ED8043F02003FB607B68DB68B3F1FF3F0BD03A4B5A687B68DB681B04384913434B60FB6843F00203FB60CD
S32D0000EDA8344B00221A60334AFB68D3603248FFF753FF0346012B14BF01230023DBB2002B09D02C4B1B6B2B4ABB
S32D0000EDD043F4702343F001031363012348E0274B1B6B03F08003002B14BF01230023DBB2002B07D0214B1B6B1E
S32D0000EDF8204A43F001131363012335E01D4B1B6B03F48033002B14BF01230023DBB2002B08D0184B1B6B174AD6
S32D0000EE2043F0011313634FF0FF3321E0FB6803F44033002B15D0114B1A697B681A61FB6803F44033B3F5803F47
S32D0000EE480BD10C4B5A697B685A610A4B9A697B689A61084BDA697B68DA61064B1B6B054A43F001031363002328
S32D0000EE7018461037BD4680BDF09B010000100B4001000E0080B592B000AF7860396000237B643B68BB63994B5B
S32D0000EE987B637B6B002B02D140F601235FE3964B3B633B6B002B02D140F60B2357E33B6B1B68FB62FB6A002B17
S32D0000EEC002D140F60B234EE37B6841F20932934200F23F837B68B3F5985F08D87B68032B00F01A837B68092BCB
S32D0000EEE800F0098331E37B68A3F59853013B082B00F22B8301A252F823F000BF29EF000015F2000071F40000B4
S32D0000EF102BF2000069F200008FF30000D7F3000019F3000033F300007649786BFFF7EEFD78647B6C002B40F03C
S32D0000EF381083002387F84330002387F82B30002387F82A30002387F82930002387F84230002387F828300023DE
S32D0000EF603B7200237B720023FB6000233B7400237B6107F108031846FFF788FE0346002B14BF01230023DBB27F
S32D0000EF88002B02D001237B64E8E240F24C4000F0BFFE08233B7200237B724FF4D573FB6000233B7400237B6187
S32D0000EFB007F108031846FFF769FEF863FB6B002B09D1BA69FB689A4202D001237B64C9E2012387F84230012394
S32D0000EFD887F8283097F82830002B00F0A58037233B7200237B720023FB6000233B7400237B6107F10803184646
S32D0000F000FFF744FEF863FB6B002B02D001237B64A8E269233B7200237B720023FB6000233B7400237B6107F1CF
S32D0000F02808031846FFF72EFE0346002B14BF01230023DBB2002B02D001237B648EE2BB6903F44013002B6FD0CC
S32D0000F0500023FB630A2000F05FFEFB6B0133FB6337233B7200237B720023FB6000233B7400237B6107F1080339
S32D0000F0781846FFF707FE0346002B14BF01230023DBB2002B02D001237B6428E069233B7200237B7297F84230A4
S32D0000F0A0002B02D0184BFB6002E04FF44013FB6000233B7400237B6107F108031846FFF7E5FD0346002B14BF63
S32D0000F0C801230023DBB2002B02D001237B6406E0BB69002B03DBFB6B632B00D8B6E77B6C002B40F03882FB6B68
S32D0000F0F0632B0BD9002387F8423019E02C17002030190020E49B010000003040012387F8433097F84230002B75
S32D0000F1180AD0002387F84230BB6903F08043002B02D0012387F8423097F82A30002B02D07B6B07221A6097F8F1
S32D0000F1402930002B02D07B6B08221A6097F82B30002B02D07B6B04221A6097F84330002B09D07B6B02221A60CA
S32D0000F16897F84230002B02D07B6B03221A6097F82B30002B0DD097F84330002B09D07B6B05221A6097F8423076
S32D0000F190002B02D07B6B06221A60924B00221A60904B00225A608F4B00229A608D4B0022DA608C4B00221A61FE
S32D0000F1B88A4B00225A61FB6A9A68FB6A5B6819461046FFF72BFC854B40F243421A60834B40F243425A60814B0A
S32D0000F1E04FF488629A607F4B40F24342DA607D4B40F243421A617B4B40F243425A617A4B03F580531B6B784A15
S32D0000F20843F4003302F580521363A7E1B86BFFF739FDF863FB6B002B00F09F8102237B649BE1BB6B002B02D1B8
S32D0000F2300C237B6496E16D4BDB6A1B0A5B0003F4FF73FB63694BDB6A1B0903F00F035A1CFB6B02FB03F3FB6398
S32D0000F258FB6A9A68FB6BB2FBF3F2BB6B1A607DE1BB6B002B02D10C237B6477E1BB6B1B68002B02D10C237B64EC
S32D0000F28070E1FFF7DBFC0346002B0CBF01230023DBB2002B3CD0534B00221A60514B00225A60504B00229A608F
S32D0000F2A84E4B0022DA604D4B00221A614B4B00225A61FB6A9A68BB6B1B6819461046FFF7ADFB464B40F24342F0
S32D0000F2D01A60444B40F243425A60424B4FF488629A60404B40F24342DA603E4B40F243421A613C4B40F243426D
S32D0000F2F85A613B4B03F580531B6B394A43F4003302F58052136329E140F60A237B6425E1BB6B002B02D10C2385
S32D0000F3207B641FE1314B5B68C3F30C02BB6B1A6018E1BB6B002B02D10C237B6412E1FFF77DFC0346002B0CBF71
S32D0000F34801230023DBB2002B19D0BB6B1B68B3F5805F02D30C237B6400E1224B5B68214A23F4FF5323F01F0382
S32D0000F37053601E4B5A68BB6B1B68C3F30C031B4913434B60EEE040F60A237B64EAE0BB6B002B02D10C237B64B2
S32D0000F398E4E0144B9B6A5B0803F00303FB63FB6B002B03D1BB6B00221A60D7E0FB6B012B03D1BB6B01221A605E
S32D0000F3C0D0E0FB6B102B03D1BB6B02221A60C9E005237B64C6E0BB6B002B09D10C237B64C0E000BF00D0044034
S32D0000F3E80070044000100B40FFF724FC0346002B0CBF01230023DBB2002B31D0BB6B1B68002B0AD1584B9B6A3C
S32D0000F410574A23F006039362554B554A9B6A9362A0E0BB6B1B68012B0CD1514B9B6A504A23F0060393624E4BCC
S32D0000F4389B6A4D4A43F0020393628FE0BB6B1B68022B0AD1484B9B6A474A23F006039362454B454A9B6A93626A
S32D0000F46080E005237B647DE040F60A237B6479E0BB6B002B02D10C237B6473E03C4BDB6A3B4A43F00063D3627E
S32D0000F488394BDB6A03F00063002B14BF01230023DBB2002B00D0F3E7334B1B6B03F08003002B14BF01230023D1
S32D0000F4B0DBB2002B08D02E4B1B6B2D4A43F0800313637B6B00221A60294B5B6A03F48033002B14BF0123002352
S32D0000F4D8DBB2002B07D07B6B1B68002B06D17B6B01221A6002E07B6B00221A607B6B1A68BB6B1A6032E0BB6BE5
S32D0000F5001C221A60BB6B043304221A60BB6B08334FF41E721A6025E00220FFF7A1FB144B1B6B03F4E003002BD7
S32D0000F52814BF01230023DBB2002B07D00E4B1B6B0D4A43F4E003136304237B640A4B1B6B094A43F03203136334
S32D0000F55008E040F609237B6404E000BF02E000BF00E000BF7B6C18464837BD4680BD00BF00100B4080B489B0F6
S32D0000F57800AF786039607B687B61364B3B613B69002B01D100235FE03B691B68022B0BD03B691B68032B07D00B
S32D0000F5A03B691B68072B03D03B691B68082B0BD12B4B5B6A03F00403002B14BF01230023DBB2002B00D0F3E7FF
S32D0000F5C83B68FB61FB69002B3DD0FB69B3F5007F28BF4FF40073FB60FB6803339B08BB61BB69002B2AD01C4BEF
S32D0000F5F01B6B03F4E003002B14BF01230023DBB2002B09D0164B1B6B154A43F4E00343F02003136300231BE06D
S32D0000F618114B5B6A03F40063002B0CBF01230023DBB2002B00D0F3E70B497B691A1D7A610A6A1A60BB69013B12
S32D0000F640BB61D1E7FA69FB68D31AFB61BEE7012318462437BD4680BC704700BF2C17002000100B4080B58EB051
S32D0000F66800AFB9607A601A460346FB731346BB73414B7B63FB7B002B02D1BB7B002B01D1042375E03D4B1B788C
S32D0000F690DBB203F00103002B14BF01230023DBB2002B01D0032367E0BB68002B01D1002362E07B6B1B7B002B61
S32D0000F6B802D17B685B027B60BB7B012B28D111233B7500237B757B68BB6101233B77BB7B3B6207F114031946CE
S32D0000F6E041F20230FFF7CEFB0346002B0CBF01230023DBB2002B38D04FF40071B868FFF739FF0346002B14BF49
S32D0000F70801230023DBB2002B2BD00023BB7328E012233B7500237B757B68BB6101233B77BB7B3B6207F11403D1
S32D0000F730194641F20230FFF7A5FB0346002B0CBF01230023DBB2002B0FD0BB7B5B021946B868FFF70FFF0346D5
S32D0000F758002B14BF01230023DBB2002B01D00023BB73BB7B002B01D0012300E0002300BF18463837BD4680BD3F
S32D0000F780181700200000002080B487B000AF786039607B68FB603B687B617B69002B3DD07B69B3F5007F28BF96
S32D0000F7A84FF400733B617A693B69D31A7B613B6903339B083B613B69002BEAD0184B1B6B03F4E003002B14BF2E
S32D0000F7D001230023DBB2002B0AD0134B1B6B124A43F4E00343F0100313634FF0FF3316E00D4B5B6A03F48063BE
S32D0000F7F8002B0CBF01230023DBB2002B00D0F3E7FB681A1DFA60064A1B6813623B69013B3B61D0E70123184653
S32D0000F8201C37BD4680BC704700100B4080B58EB000AFB9607A601A460346FB731346BB735D4B7B63FB7B002B3C
S32D0000F84802D1BB7B002B01D10423ADE0594B1B78DBB203F00103002B14BF01230023DBB2002B01D003239FE0AA
S32D0000F870524B1B78DBB203F00403002B14BF01230023DBB2002B01D0022391E0BB68002B01D100238CE07B6BBA
S32D0000F8981B7B002B02D17B685B027B60BB7B012B28D118233B7500237B757B68BB6100233B77BB7B3B6207F19B
S32D0000F8C01403194641F20230FFF7DCFA0346002B0CBF01230023DBB2002B38D04FF40071B868FFF751FF0346CA
S32D0000F8E8002B14BF01230023DBB2002B2BD00023BB7328E019233B7500237B757B68BB6100233B77BB7B3B62FB
S32D0000F91007F11403194641F20230FFF7B3FA0346002B0CBF01230023DBB2002B0FD0BB7B5B021946B868FFF72E
S32D0000F93827FF0346002B14BF01230023DBB2002B01D00023BB730D233B7500237B757B6B1B69BB6100233B77C5
S32D0000F96000233B6207F11403194641F20230FFF789FA0346002B14BF01230023DBB2002B01D0012314E07A6A5A
S32D0000F9880D4B1340002B01D001230DE07B6A03F4F853B3F5106F00D0D5E7BB7B002B01D0012300E0002300BFA7
S32D0000F9B018463837BD4680BD18170020000000200880D9FF80B58CB000AF03463A60FB710B46BB713A4BBB62BF
S32D0000F9D8FB79002B01D0042369E0012387F82F30364B1B78DBB203F00103002B14BF01230023DBB2002B01D0B9
S32D0000FA00032358E0BB79032B50D801A252F823F021FA000029FA000039FA000049FA0000002387F82F3044E017
S32D0000FA28BB6A9A683B681A60002387F82F303CE03B684FF400721A80002387F82F3034E009233B7200237B725F
S32D0000FA50BB6A1B69FB6000233B7400237B6107F10803194641F20230FFF70CFA0346002B14BF01230023DBB2D5
S32D0000FA78002B01D001231AE07B6A03F44003002B0CD13B6A9B0C03F07F035A1C7B6A1B0A03F00303013B9A40CF
S32D0000FAA03B681A60002387F82F3002E0042387F82F3097F82F3018463037BD4680BD00BF181700200000002012
S32D0000FAC880B483B000AF0346FB71FB79002B01D0012302E0034B1B78DBB218460C37BD4680BC704700000020AA
S32D0000FAF080B483B000AF7860164B03F580539B6B144A43F0010302F580529363124A7B689360114B05225A6005
S32D0000FB180F4B1B680E4A43F0010313600C4B1B6803F08003002B0CBF01230023DBB2002B00D0F3E7064B1B681D
S32D0000FB40054A23F00103136000BF0C37BD4680BC704700BF007004400000044080B582B000AF786039607B68A5
S32D0000FB68012B07D13B684FF6FF72934202D1034800F00EF800BF0837BD4680BD3819002080B500AF4FF6FF71E1
S32D0000FB900120FFF7E3FF80BD80B483B000AF78607B6800221A707B6818460C37BD4680BC7047000080B582B0B3
S32D0000FBB800AF78607B681B7883F00103DBB2002B21D0134B03F580531A464FF400639362104B4FF440721A6212
S32D0000FBE00E4B4FF440725A620D4B1B68DA0F13445B104FF4614219460A48FEF7FDFB642000F08AF87B680122E7
S32D0000FC081A70012300E0002318460837BD4680BD0070044000D004403C19002000B00E4080B582B000AF786017
S32D0000FC30084611461A460346FB700B46BB7013467B707F210E48FEF7AAFC08210C48FEF7A6FCFB7819460A4864
S32D0000FC58FEF7A1FCBB7819460748FEF79CFC7B7819460548FEF797FCFF210348FEF793FC00BF0837BD4680BD2A
S32D0000FC8000B00E4080B487B000AFF860B9607A60FB681F4AA2FB03239B09BA6813447B61FB681B4AA2FB0312F1
S32D0000FCA892094FF47A7101FB02F29B1AFB60FB68DB03154AA2FB03239B097A6813443B613B69DB0B7A691344C5
S32D0000FCD07B613B69C3F30E033B610E4B1B687A699A4209D80B4B1B687A699A4206D1094B5B683A699A4201D9C8
S32D0000FCF8012300E00023002B00D0EAE700BF1C37BD4680BC704700BFD34D621000D0034080B584B000AF78608F
S32D0000FD20074B1B68FB60064B5B68BB607B68BA68F9681846FFF7A6FF00BF1037BD4680BD00D0034080B584B035
S32D0000FD4800AF78600B4B1B68FB600A4B5B68BB600949786803F05CFA0346184603F044FC0346BA68F968184620
S32D0000FD70FFF788FF00BF1037BD4680BD00D0034000007A4480B584B000AFC7E900010E4B1B68FB600C4B5B68B7
S32D0000FD98BB604FF000020B4BD7E9000102F0E2FD02460B461046194603F0B4F80346BA68F9681846FFF762FF8B
S32D0000FDC000BF1037BD4680BD00D0034000408F4080B584B000AF134B1B68FB60114B5B68BB60F86802F048FD88
S32D0000FDE802460B46C7E90023B86802F041FD4FF000020B4B02F0E0FE02460B46D7E9000102F0FAFB02460B46F0
S32D0000FE10C7E90023D7E90023104619461037BD4680BD00BF00D003400000E04080B584B000AF78600B46FB7034
S32D0000FE380B23FB73FA7BFB781946786800F094F87B6818461037BD4680BD000080B485B000AF78607B68103B77
S32D0000FE60002B00DA1F335B11FB60FB68022B53D0FB68022B75DCFB68002B03D0FB68012B25D06EE0394BD3F840
S32D0000FE8880217B68103B594203F01F0301F01F0158BF4B42012101FA03F332491343C1F88031304B1A687B68EA
S32D0000FEB0103B594203F01F0301F01F0158BF4B42012101FA03F3294913430B6049E0274BD3F884217B68103BF5
S32D0000FED8594203F01F0301F01F0158BF4B42012101FA03F31F491343C1F884311D4B5A687B68103B594203F072
S32D0000FF001F0301F01F0158BF4B42012101FA03F3164913434B6024E0144BD3F888217B68103B594203F01F03D4
S32D0000FF2801F01F0158BF4B42012101FA03F30D491343C1F888310B4B9A687B68103B594203F01F0301F01F017E
S32D0000FF5058BF4B42012101FA03F3044913438B6000BF00BF1437BD4680BC704700E100E080B584B000AF7860CE
S32D0000FF780B46FB701346BB707B68FA781A70BB78FB737B681B781A46574B9B5C042B00F2A68001A252F823F0E5
S32D0000FFA0B5FF0000010001004D000100E500010099000100FB7B1B0403F470234D497A68127810464C4A52F858
S32D0000FFC8202043F4897343F0010341F82230494B5A697B681B781946454B53F8213003F01F03012101FA03F356
S32D0000FFF0DB43424913404B616720FFF72BFF72E0FB7B1B0403F470233D497A6812781046394A52F8202043F497
S32D00010018897343F0010341F82230384B5A697B681B781946324B53F8213003F01F03012101FA03F3DB43314907
S32D0001004013404B616820FFF705FF4CE0FB7B1B0403F470232C497A6812781046264A52F8202043F4897343F02E
S32D00010068010341F82230274B5A697B681B7819461F4B53F8213003F01F03012101FA03F3DB43204913404B611C
S32D000100906920FFF7DFFE26E0FB7B1B0403F470231B497A6812781046134A52F8202043F4897343F0010341F810
S32D000100B82230164B5A697B681B7819460C4B53F8213003F01F03012101FA03F3DB430F4913404B616B20FFF7BD
S32D000100E0B9FE00E000BF00BF1037BD4680BD00BFF09C010000900440349D010000F00F4000A0044040F00F40C1
S32D0001010800B0044080F00F4000D0044000F10F40B0B48BB000AF224B3C1D1D460FCD0FC495E80F0084E80F0094
S32D0001013000237B627B6A072B30DC1C4BD3F8A0207B6A9B0028333B4453F8243C012101FA03F31340002B14BF22
S32D0001015801230023DBB2002B18D0134A7B6A52F823305A1C10497B6A41F823200D4BD3F8A0207B6A9B002833C4
S32D000101803B4453F8243C012101FA03F307491340C1F8A0307B6A01337B62CBE700BF2C37BD46B0BC704700BF38
S32D000101A8389E010000A0044068190020B0B489B000AF224B3C1D1D460FCD0FC495E8030084E803000023FB613A
S32D000101D0FB69052B30DC1C4BD3F8A020FB699B0020333B4453F81C3C012101FA03F31340002B14BF012300234F
S32D000101F8DBB2002B18D0FB690833124A52F823200132104941F823200D4BD3F8A020FB699B0020333B4453F8A9
S32D000102201C3C012101FA03F307491340C1F8A030FB690133FB61CBE700BF2437BD46B0BC704700BF589E01007C
S32D0001024800B0044068190020B0B48DB000AF234B3C461D460FCD0FC40FCD0FC495E8070084E807000023FB627A
S32D00010270FB6A0A2B30DC1C4BD3F8A020FB6A9B0030333B4453F8303C012101FA03F31340002B14BF0123002383
S32D00010298DBB2002B18D0FB6A0E33124A52F823200132104941F823200D4BD3F8A020FB6A9B0030333B4453F8F0
S32D000102C0303C012101FA03F307491340C1F8A030FB6A0133FB62CBE700BF3437BD46B0BC704700BF709E01009E
S32D000102E80090044068190020B0B487B000AF214B3C461D460FCD0FC42B68236000237B617B69042B30DC1C4B8D
S32D00010310D3F8A0207B699B0018333B4453F8183C012101FA03F31340002B14BF01230023DBB2002B18D07B691C
S32D000103381933124A52F823200132104941F823200D4BD3F8A0207B699B0018333B4453F8183C012101FA03F37B
S32D0001036007491340C1F8A0307B6901337B61CBE700BF1C37BD46B0BC704700BF9C9E010000D0044068190020B5
S32D0001038880B483B000AF78607B681B781A46044B53F8223018460C37BD4680BC704700BF6819002080B483B038
S32D000103B000AF78607B681B781946044B002243F8212000BF0C37BD4680BC70476819002080B483B000AF78604E
S32D000103D80B46FB707B68FA781A707B6818460C37BD4680BC7047000080B586B000AF78607B681B781A463E4B90
S32D0001040053F822303B617B681B781A463B4B9B5CFB733B69DBB203F01F03DAB2384B1A723B69DBB203F01F03AC
S32D00010428DAB2354B5A72354B1022C3F88820FB7B002B13D13049324800F05AFA304B1B6803F08003802B14BF0A
S32D0001045001230023DBB2002B00D0F3E72A4B1B697B6112E02649294800F046FA274B1B6803F08003802B14BF14
S32D0001047801230023DBB2002B00D0F3E7214B1B697B611E4BD3F888311C4A43F01003C2F888311A4B9B68194A09
S32D000104A043F0100393607B699BB2184602F0E4F90DA3D3E9002302F059FA02460B46104619460BA3D3E90023E7
S32D000104C802F07AFB02460B461046194602F042FD0346BB60BB6818461837BD4680BD00BFA4703D0AD7A30A40CD
S32D000104F000000000E0FFEF40B49D0100109D01004819002000E100E000B0034000B00B4080B586B000AF7860AD
S32D000105187B681B781A46234B53F822303B617B681B781A46204B9B5CFB733B69DBB203F01F03DAB21D4B1A72CB
S32D000105403B69DBB203F01F03DAB21A4B5A72FB7B002B13D11749184800F0CEF9164B1B6803F08003802B14BFB5
S32D0001056801230023DBB2002B00D0F3E7104B1B697B6112E00D490F4800F0BAF90D4B1B6803F08003802B14BFEF
S32D0001059001230023DBB2002B00D0F3E7074B1B697B617B6918461837BD4680BDB49D0100109D0100581900207F
S32D000105B800B0034000B00B4098B500AF204B5C221A701F4B10225A701D4B41F234225A801B4B45F278629A80F5
S32D000105E0194B10229A71184B0722DA71164B4FF4C022DA60144B1F221A72134B1F225A721149124800F078F908
S32D000106080F49114800F074F90F4800F0D2F80D4800F0CFF80A490C4800F06AF90849094800F066F9094A064B09
S32D0001063014460FCB84E80F00064B5C221A70054B0422DA7100BF98BD4819002000B0034000B00B4058190020BE
S32D0001065880B500AF064B1B680133054A136000F03DF8044B0122C3F80C2100BF80BD00BFEC19002000700340B3
S32D0001068080B500AF0C4B01221A600C4800F01AF8094B0322C3F80821094BD3F88831084A43F01003C2F88831DD
S32D000106A8054B9B68044A43F01003936000BF80BD00700340A086010000E100E080B483B000AF7860044A7B6893
S32D000106D0C2F8003100BF0C37BD4680BC704700BF0070034080B584B000AF174B1B68FB60FB68002B24D0FB6869
S32D000106F85B78FB71FB689B68184600F023F80346BB71BB79002B13D0FB685B68012B0FDDFB689B681B69BB60CB
S32D00010720BB68002B08D0BB685B685A1CBB685A60BB681B69BB60F3E7FB68DB68FB60D7E700BF1037BD4680BDAA
S32D00010748E819002080B584B000AF78607868FFF7DBFEF8607B689B695B78FB72FB7A002B0FD17B68DB68FA683B
S32D000107709A420ADD7B689B6901225A707B685B685A1C7B685A60012313E0FB7A012B0FD17B689B68FA689A424E
S32D000107980ADA7B689B6900225A707B685B685A1C7B685A60012300E0002318461037BD4680BD80B485B000AF9E
S32D000107C078607B681B6A23F040027B681A627B685B6A23F00B027B685A627B685B6A43F007027B685A627B6849
S32D000107E85B6A43F080027B685A627B681B6803F08003002B0CBF01230023DBB2002B00D0F3E77B685B6A03F0B3
S32D000108104003402B0CBF01230023DBB2002B01D0012364E00023FB817B68DB6CFB817B689B6C9AB2FB891344B2
S32D00010838FB817B685B6C9AB2FB891344FB817B681B6C9AB2FB891344FB817B68DB6B9AB2FB891344FB817B680C
S32D000108609B6B9AB2FB891344FB81FB895B08FB81FB896FEA43436FEA5343FB81FA897B68DA620023FB817B686B
S32D00010888DB6EFB817B689B6E9AB2FB891344FB817B685B6E9AB2FB891344FB817B681B6E9AB2FB891344FB818F
S32D000108B07B68DB6D9AB2FB891344FB817B689B6D9AB2FB891344FB81FB895B08FB81FB896FEA43436FEA534308
S32D000108D8FB81FA897B681A637B685B6A23F080027B685A62002318461437BD4680BC704780B483B000AF786006
S32D0001090039603B681B781A467B689A603B685B781A467B68DA603B685B881A467B689A613B689B881A467B68FC
S32D00010928DA613B689B791A467B681A623B68DB791A467B685A623B68DA687B681A653B681B7A1A467B681A60BD
S32D000109503B685B7A1A467B685A6000BF0C37BD4680BC704780B483B000AF78607B6818460C37BD4680BC7047A3
S32D0001097880B582B000AF786039607B68012B07D13B684FF6FF72934202D10348FFF7E6FF00BF0837BD4680BD7D
S32D000109A0F019002080B500AF4FF6FF710120FFF7E3FF80BD80B582B000AF7860B84B4FF48072DA60B74B4FF48B
S32D000109C880729A64B54B4FF480721A64B34B4FF480725A64B14B4FF48072DA60B04B5B69AF4A43F00803536157
S32D000109F0AE4B5B69AD4A43F480235361AB4B5B69AA4A43F480335361A84B5B69A74A43F400335361A54B1B6811
S32D00010A18A44A43F008031360A24B5B69A14A43F0080353619E4B1B689D4A43F0080313609A4B4FF480725A62A8
S32D00010A40984B4FF480721A62954B4FF480721A61934B4FF480725A61914B4FF480729A618F4B4FF48072DA613F
S32D00010A688D4B4FF480721A638B4B4FF480725A63894B4FF480729A63874B4FF48072DA63854B4FF480721A6440
S32D00010A90834B4FF480725A64814B4FF480729A647F4B4FF48072DA64814B4FF480721A607F4B4FF480729A60C6
S32D00010AB87D4B4FF48072DA607B4B4FF480721A61784B5B69774A43F440735361744B5B69734A43F47F2343F030
S32D00010AE0F0035361734B5B69724A43F01D035361E221786800F068FC1D21786800F00AFD0221786800F006FDB9
S32D00010B080421786800F002FDE021786800F058FC0121786800F0FAFC6420FFF7F9F8E021786800F04DFC032114
S32D00010B30786800F0EFFC0121786800F045FC0120FFF7EAF8E621786800F03EFC0121786800F0E0FCA02178682F
S32D00010B5800F0DCFCFF21786800F0D8FCB021786800F02EFC1C21786800F0D0FC0F21786800F0CCFC0121786874
S32D00010B8000F0C8FC3F21786800F0C4FC0021786800F0C0FCEF21786800F0BCFC0021786800F0B8FCB421786803
S32D00010BA800F00EFC0121786800F0B0FC9921786800F0ACFC0021786800F0A8FC4521786800F0A4FC02217868E6
S32D00010BD000F0A0FC0021786800F09CFC0021786800F098FC0021786800F094FCB621786800F0EAFB012178684D
S32D00010BF800F08CFC0921786800F088FC0021786800F084FC0E21786800F080FC0221786800F07CFC0021786880
S32D00010C2000F078FC0021786800F074FCBA21786800F0CAFB0F21786800F06CFC6420FFF76BF83A21786800F000
S32D00010C48BFFB6021786800F061FC2A21786800F0B7FB0021786800F059FC0021786800F055FC0121786800F0CE
S32D00010C7051FC3F21786800F04DFC2B21786800F0A3FB0021786800F045FC0021786800F041FC0021786800F084
S32D00010C983DFCEF2178680BE000B0044000A0044080F00F4040F00F4000C00440C0F00F4000F02CFC36217868B1
S32D00010CC000F082FB0021786800F024FCF021786800F07AFB0421786800F01CFCB821786800F072FB0F217868FE
S32D00010CE800F014FC0121786800F010FC314B1B68304A43F0080313606420FFF709F83621786800F05DFB00219A
S32D00010D10786800F0FFFBF021786800F055FB0421786800F0F7FB0121786800F0BCF91E226F21786800F082F811
S32D00010D38AF225621786800F0DBF80021786800F00AFA012301221C49786800F02BFA2921786800F035FB64203D
S32D00010D60FEF7DAFFBE21786800F02EFB0E21786800F0D0FBF021786800F0CCFB0121786800F0C8FB0021786896
S32D00010D8800F0C4FB0021786800F0C0FB0F21786800F0BCFB786800F028FA0121786800F0DAF90021786800F082
S32D00010DB0AFF900BF0837BD4680BD00BF40F00F40B09E010080B582B000AF78607B680022DA617B6801221A62F1
S32D00010DD87B680E225A607B681A229A607B6800225A617B6800229A617B684FF4A072DA607B68F0221A617B6881
S32D00010E0000221A70786800F0ADFF7B6818460837BD4680BD80B582B000AF7860064B1B78002B05D1044B012296
S32D00010E281A707868FFF7C2FD00BF0837BD4680BD381A002080B58AB002AFF860B9607A607E23009362237A68C6
S32D00010E50B968F86800F0E6FC40F24E733B610023FB61FA693B699A4240DA0023BB61214AFB6913441B781A46BD
S32D00010E78BB69934232DAFB6901331C4AD35C002B06D1FF23FB75FF23BB75FF237B7512E0FB690133154AD35C09
S32D00010EA0012B06D1D423FB750023BB7526237B7505E0B523FB75BA23BB75B0237B757B7DBA7DF97DF86800F03B
S32D00010EC8C9F80246FB68DA61F86800F047FFF86800F080FEBB690133BB61C4E7FB690233FB61BAE700BF203725
S32D00010EF0BD4680BD0400002080B58AB002AFF860B9607A602723009395237A68B968F86800F088FC40F2E6334D
S32D00010F183B610023FB61FA693B699A4240DA0023BB61214AFB6913441B781A46BB69934232DAFB6901331C4A37
S32D00010F40D35C002B06D1FF23FB75FF23BB75FF237B7512E0FB690133154AD35C012B06D10023FB750023BB755A
S32D00010F6800237B7505E0D423FB750023BB7526237B757B7DBA7DF97DF86800F06BF80246FB68DA61F86800F0E1
S32D00010F90E9FEF86800F022FEBB690133BB61C4E7FB690233FB61BAE700BF2037BD4680BD5407002080B485B0EC
S32D00010FB800AF78600B46FB70FB78062B29D801A252F823F0F10F0100E90F0100F70F0100FF0F010007100100FA
S32D00010FE00D100100151001006FF07F43FB6014E00023FB6011E04FF47F03FB600DE04FF47F43FB6009E0FF2347
S32D00011008FB6006E04FF41903FB6002E0044BFB6000BFFB6818461437BD4680BC704700BF9999990080B584B07E
S32D0001103000AF786039603B681B0CFB733B681B0ABB733B687B737B7BBA7BF97B786800F005F803461846103758
S32D00011058BD4680BD80B487B000AF7860084611461A460346FB700B46BB7013467B70FB789B08DBB27B61BB780C
S32D000110809B08DBB23B617B789B08DBB2FB607B691A033B699B011A43FB68134318461C37BD4680BC704780B5C4
S32D000110A882B000AF78600B46FB70FB7819467868FFF77CFF03461946786800F004F800BF0837BD4680BD80B59A
S32D000110D082B000AF7860396039687868FFF7A6FF02467B681A62786800F03CFE786800F0A9FA00BF0837BD465E
S32D000110F880BD80B582B000AF7860786800F09EFA00BF0837BD4680BD80B582B000AF78600B46FB70FB7819467C
S32D000111207868FFF747FF03461946786800F004F800BF0837BD4680BD80B582B000AF7860396039687868FFF7D4
S32D0001114871FF02467B681A62786800F007FE00BF0837BD4680BD80B582B000AF78600B46FB70FB7819467868F2
S32D00011170FFF720FF03461946786800F004F800BF0837BD4680BD80B582B000AF7860396039687868FFF74AFF42
S32D0001119802467B68DA61786800F0E0FD00BF0837BD4680BD80B586B000AFF860B9607A603B6000237B617B69F4
S32D000111C0BA6813441B78002B0FD07B69BA6813441B783A687968F86800F0BEFB7B680C337B607B6901337B617D
S32D000111E8E9E700BF1837BD4680BD80B582B000AF7860FDF7ADF867210120FDF73CF800210220FDF738F8A0213A
S32D000112100320FDF734F850210420FDF730F820210520FDF72CF820210620FDF728F877210720FDF724F80021D2
S32D000112380820FDF720F800210920FDF71CF800210A20FDF718F804210B20FDF714F87B684FF0FF32DA637B68EF
S32D000112604FF0FF321A6400BF0837BD4680BD80B584B000AF786039600023FB60786800F0A4FAFB683A68134462
S32D000112881B78002B12D07B6859697B689869FB683A6813441B780246786800F03EFB786800F0A3FAFB680133CA
S32D000112B0FB60E6E700BF1037BD4680BD80B592B000AF786039604FF00001386802F056F90346002B1FD03868E6
S32D000112D802F064F903467B64786C01F045FF03461946386801F08AFE03461F49184601F08FFF0346184602F06F
S32D0001130051F903463B6407F10C003B6C7A6C194903F0FEF922E03B6883F000433B60386802F040F903467B64C6
S32D00011328786C01F021FF03461946386801F066FE03460D49184601F06BFF0346184602F02DF903463B6407F10D
S32D000113500C003B6C7A6C084903F0DAF907F10C0319467868FFF783FF00BF4837BD4680BD00007A44CC9E010059
S32D00011378C09E010080B582B000AF78603960786800F01FFA39687868FFF76DFF786800F003FA00BF0837BD46C6
S32D000113A080BD80B582B000AF78603960786800F00CFA39687868FFF781FF786800F0F0F900BF0837BD4680BD96
S32D000113C880B483B000AF78600B46FB704D4B1B684C4A23F0080313604B4B1B684A4A23F480231360484B1B681A
S32D000113F0474A43F480331360454B1B68444A23F440731360414B1B68404A23F4435323F0300313603E4B1A68F8
S32D00011418FB785B0203F400733B4913430B603A4B1A68FB785B101B0203F48073364913430B60344B1A68FB7886
S32D000114409B101B0103F01003304913430B602F4B1A68FB78DB105B0103F020032B4913430B602A4B1A68FB780B
S32D000114681B119B0103F04003264913430B60254B1A68FB785B11DB01DBB2224913430B60204B1A68FB789B11B5
S32D000114901B0303F480531D4913430B601B4B1A6897F90330DB115BB25B0303F40053174913430B60164B1B68CD
S32D000114B8154A23F400331360134B1B68124A43F4003313600F4B1B680E4A43F0080313600D4B1B680C4A43F481
S32D000114E040731360094B1B68084A43F4435343F030031360064B1B68054A43F48023136000BF0C37BD4680BC37
S32D00011508704700BF80F00F4040F00F4080B483B000AF78600B46FB70464B1B68454A23F008031360444B1B6810
S32D00011530434A43F480331360414B1B68404A43F4802313603E4B1B683D4A23F4407313603A4B1B68394A23F44A
S32D00011558435323F030031360374B1A68FB785B0203F40073344913430B60334B1A68FB785B101B0203F48073B4
S32D000115802F4913430B602D4B1A68FB789B101B0103F01003294913430B60284B1A68FB78DB105B0103F02003D1
S32D000115A8244913430B60234B1A68FB781B119B0103F040031F4913430B601E4B1A68FB785B11DB01DBB21B49C5
S32D000115D013430B60194B1A68FB789B111B0303F48053164913430B60144B1A6897F90330DB115BB25B0303F42C
S32D000115F80053104913430B600F4B1B680E4A23F4003313600C4B1B680B4A43F400331360084B1B68074A43F0FF
S32D0001162008031360064B1B68054A23F48023136000BF0C37BD4680BC704700BF80F00F4040F00F4080B586B06D
S32D0001164800AF78607B6800225A617B6800229A617B681B6AFB60FB68FB72FB681B0ABB72FB681B0CDBB203F0DA
S32D0001167003037B722A217868FFF7A6FE00217868FFF748FF00217868FFF744FF01217868FFF740FF3F217868A4
S32D00011698FFF73CFF2B217868FFF792FE00217868FFF734FF00217868FFF730FF00217868FFF72CFFEF217868DE
S32D000116C0FFF728FF2C217868FFF77EFE314B1B68304A23F4407313602F4B1B682E4A23F47F2323F0F0031360E2
S32D000116E82C4B1B682B4A23F01D031360274B1A687B681B6B254913430B60254B1A687B685B6B234913430B606A
S32D00011710224B1A687B689B6B204913430B601E4B1B681D4A23F0080313601A4B1B68194A43F480231360002309
S32D000117387B617B69EF2B19D800233B613B69B3F5A07F0FD2114B1B68104A23F4003313600E4B1B680D4A43F44C
S32D00011760003313603B6901333B61EBE77B6901337B61E2E7084B1B68074A43F008031360044B1B68034A23F4A3
S32D000117888023136000BF1837BD4680BD40F00F4080F00F40C0F00F4080B483B000AF78607B689B69002B07DDAD
S32D000117B07B685B695A1C7B685A617B6800229A6100BF0C37BD4680BC704780B582B000AF78607B685A697B68E0
S32D000117D85B689A4205DB7B6800225A617868FFF72DFF00BF0837BD4680BD80B582B000AF78607B689B695A1C18
S32D000118007B689A617B689A697B689B689A4205D17868FFF7C5FF7868FFF7D7FF00BF0837BD4680BD80B588B06C
S32D0001182800AFF860B9607A603B60FB681B78022B03D0FB681B78032B11D17B68FB61BA6AFB691344013BBB618A
S32D00011850FB68DA68BB68D31A3B613B683A69D31A01337B610DE0BB68FB613A68FB691344013BBB617B687B61F5
S32D00011878BA6A7B691344013B3B612A21F868FFF79FFDFB691B0ADBB203F00F03DBB21946F868FFF73BFEFB69D3
S32D000118A0DBB21946F868FFF735FEBB691B0ADBB203F00F03DBB21946F868FFF72BFEBB69DBB21946F868FFF7F8
S32D000118C825FE2B21F868FFF77BFD7B691B0ADBB203F00F03DBB21946F868FFF717FE7B69DBB21946F868FFF79C
S32D000118F011FE3B691B0ADBB203F00F03DBB21946F868FFF707FE3B69DBB21946F868FFF701FE2C21F868FFF790
S32D0001191857FD00BF2037BD4680BD80B584B000AFF860B9607A60FB707A6813465B0013449B00991CBA68134670
S32D000119401B011344DA1CFB78F86800F005F800BF1037BD4680BD000080B58EB002AFF860B9607A60FB70FB78BC
S32D000119680A2B06D1F868FFF72CFFF868FFF714FFF2E0FB787D2B02D8FB781F2B01D82023FB70FB78203BFB7016
S32D00011990112300930C237A68B968F868FFF742FFFA7813469B0013446F4AD35C3B75FA7813469B001344013352
S32D000119B86B4AD35C7B75FA7813469B0013440233674AD35CBB75FA7813469B0013440333634AD35CFB75FA7879
S32D000119E013469B00134404335F4AD35C3B760023BB62BB6A062B00F3A180F86800F050F9F86800F0B3F800236C
S32D00011A0887F82F3000237B627B6A042B35DC07F114027B6A13441B7803F00103002B14BF01230023FB76FB7EA9
S32D00011A30002B11D097F82F3083F00103DBB2002B03D0F86800F0CAF802E0F86800F08EF8F86800F08BF80DE001
S32D00011A5897F82F30002B03D0F86800F01DF902E0F86800F07FF8F86800F07CF8FB7E87F82F307B6A01337B6253
S32D00011A80C6E797F82F30002B03D0F86800F008F902E0F86800F06AF8F86800F067F8002387F82F3000233B6249
S32D00011AA83B6A042B42DC07F114023B6A13441B7803F00103002B14BF01230023BB76BB7E002B11D097F82F30E0
S32D00011AD083F00103DBB2002B03D0F86800F07EF802E0F86800F042F8F86800F03FF80DE097F82F30002B03D053
S32D00011AF8F86800F0D1F802E0F86800F033F8F86800F030F8BB7E87F82F3007F114023B6A13441B785B08D9B22F
S32D00011B2007F114023B6A13440A461A703B6A01333B62B9E7BB6A0133BB625AE7F86800F0AFF8002387F82F30ED
S32D00011B480123FB61FB69232B06DCF86800F00AF8FB690133FB61F5E73037BD4680BD00BF3C0B002080B483B004
S32D00011B7000AF7860174B1B68164A43F480331360154B1B68144A23F008031360114B1B68104A43F480231360C5
S32D00011B980E4B1B680D4A23F4003313600B4B1B680A4A43F400331360094B1B68084A43F008031360054B1B6877
S32D00011BC0044A23F48023136000BF0C37BD4680BC704700BF40F00F4080F00F4080B483B000AF78602B4B1B689F
S32D00011BE82A4A43F480331360294B1B68284A23F008031360254B1B68244A43F480231360224B1B68214A23F4E3
S32D00011C1040731360204B1B681F4A23F47F2323F0F00313601D4B1B681C4A23F01D031360184B1A687B685B6A72
S32D00011C38164913430B60164B1A687B689B6A144913430B60134B1A687B68DB6A114913430B600E4B1B680D4A1E
S32D00011C6023F4003313600B4B1B680A4A43F400331360094B1B68084A43F008031360054B1B68044A23F48023D9
S32D00011C88136000BF0C37BD4680BC704740F00F4080F00F40C0F00F4080B483B000AF78602B4B1B682A4A43F4F3
S32D00011CB080331360294B1B68284A23F008031360254B1B68244A43F480231360224B1B68214A23F4407313609F
S32D00011CD8204B1B681F4A23F47F2323F0F00313601D4B1B681C4A23F01D031360184B1A687B681B6B164913435A
S32D00011D000B60164B1A687B685B6B144913430B60134B1A687B689B6B114913430B600E4B1B680D4A23F400333E
S32D00011D2813600B4B1B680A4A43F400331360094B1B68084A43F008031360054B1B68044A23F48023136000BF28
S32D00011D500C37BD4680BC704740F00F4080F00F40C0F00F4080B485B000AF78607B681B6AFB60FB68FB72FB6808
S32D00011D781B0ABB72FB681B0CDBB203F003037B727B6800225A627B6800229A627B680022DA627B6800221A6368
S32D00011DA07B6800225A637B6800229A637B681A6BFB7A5B0203F400731A437B681A637B681A6BFB7A5B101B028A
S32D00011DC803F480731A437B681A637B685A6BFB7A9B101B0103F010031A437B685A637B685A6BFB7ADB105B01FA
S32D00011DF003F020031A437B685A637B685A6BFB7A1B119B0103F040031A437B685A637B685A6BFB7A5B11DB0134
S32D00011E18DBB21A437B685A637B685A6BFB7A9B111B0303F480531A437B685A637B685A6B97F90B30DB115BB2F7
S32D00011E405B0303F400531A437B685A637B685A6BBB7A9B0303F480431A437B685A637B685A6BBB7A5B10DB0376
S32D00011E689BB21A437B685A637B685A6BBB7A9B101B0403F480331A437B685A637B685A6BBB7ADB105B0403F495
S32D00011E9000331A437B685A637B685A6BBB7A1B119B0403F480231A437B685A637B685A6BBB7A5B11DB0403F495
S32D00011EB800231A437B685A637B689A6BBB7A9B1103F001031A437B689A637B689A6B97F90A30DB115BB29B0098
S32D00011EE003F004031A437B689A637B689A6B7B7ADB0003F008031A437B689A637B689A6B7B7A5B101B0103F052
S32D00011F0810031A437B689A637B68DB69FB60FB68FB72FB681B0ABB72FB681B0CDBB203F003037B727B685A6AAF
S32D00011F30FB7A5B0203F400731A437B685A627B685A6AFB7A5B101B0203F480731A437B685A627B689A6AFB7A64
S32D00011F589B101B0103F010031A437B689A627B689A6AFB7ADB105B0103F020031A437B689A627B689A6AFB7A00
S32D00011F801B119B0103F040031A437B689A627B689A6AFB7A5B11DB01DBB21A437B689A627B689A6AFB7A9B1183
S32D00011FA81B0303F480531A437B689A627B689A6A97F90B30DB115BB25B0303F400531A437B689A627B689A6A70
S32D00011FD0BB7A9B0303F480431A437B689A627B689A6ABB7A5B10DB039BB21A437B689A627B689A6ABB7A9B1064
S32D00011FF81B0403F480331A437B689A627B689A6ABB7ADB105B0403F400331A437B689A627B689A6ABB7A1B11A1
S32D000120209B0403F480231A437B689A627B689A6ABB7A5B11DB0403F400231A437B689A627B68DA6ABB7A9B1157
S32D0001204803F001031A437B68DA627B68DA6A97F90A30DB115BB29B0003F004031A437B68DA627B68DA6A7B7ADF
S32D00012070DB0003F008031A437B68DA627B68DA6A7B7A5B101B0103F010031A437B68DA6200BF1437BD4680BC7E
S32D000120987047000080B582B000AF786039607B68012B07D13B684FF6FF72934202D10348FEF784FE00BF083733
S32D000120C0BD4680BDF419002080B500AF4FF6FF710120FFF7E3FF80BD80B582B000AF7860164B03F580535B6BD5
S32D000120E8144A43F0400302F580525363124B4FF400725A62104B4FF400721A620F4B14225A700E4B1B7ADBB247
S32D000121100C4A43F00103DBB213720A4B80229A7002212B20FCF734F83D212A20FCF730F87B6818460837BD462D
S32D0001213880BD00BF0070044000C004400060064080B582B000AF786039607B68012B07D13B684FF6FF72934282
S32D0001216002D10348FFF7B8FF00BF0837BD4680BD3C1A002080B500AF4FF6FF710120FFF7E3FF80BD0000000002
S32D0001218880B582B000AF78607B681846FEF72CF903460F49184601F03BF80346184600F089FB09A3D3E9002316
S32D000121B000F006FD02460B461046194600F0CEFE034618460837BD4680BD00BFAFF300800000000000A06940B3
S32D000121D800404A4480B582B000AF78600B46FB707B68FA7811461846FEF7EEF87B6818460837BD4680BD0000BB
S32D0001220080B582B000AF786039607B68012B08D13B684FF6FF72934203D120210348FFF7DDFF00BF0837BD46DF
S32D0001222880BD00BF401A002080B500AF4FF6FF710120FFF7E1FF80BD80B483B000AF78607B6800221A707B68E4
S32D0001225018460C37BD4680BC7047000080B483B000AF78603960044A3B68136000BF0C37BD4680BC704700BF26
S32D00012278441A002080B582B000AF3248FCF772F90346FB71304AFB791370304B01221A702F4B1B78022B33D040
S32D000122A0022B4FDC002B02D0012B14D04AE0FB79FF2B44D1284B01221A70284B00221A70264B1B785A1CD1B291
S32D000122C8244A11701946244AFB79535433E0214B1B785A1CD1B21F4A117019461E4AFB7953541C4B1B780D2B07
S32D000122F027D11C4B1B68194A1278114618489847154B02221A701CE0FB79FF2B10D1124B01221A70114B002249
S32D000123181A70104B1B785A1CD1B20E4A117019460D4AFB79535409E00A4B00221A70084B00221A7002E000BFF1
S32D0001234000E000BF00BF0837BD4680BD00A006405B1A00205A1A0020591A0020581A0020481A0020441A00205D
S32D0001236880B582B000AF78607B681846FFF764FF7B680E491846FFF76DFF0D4B4FF0FF321A600C4B00221A707F
S32D000123900B4B00221A700B4B00221A700A4B00221A700A4B00221A707B6818460837BD4680BD00BFF523010080
S32D000123B8601A0020681A0020691A0020641A0020651A0020661A002080B483B000AF7860054B1B78012B01D16B
S32D000123E0012300E0002318460C37BD4680BC7047681A002080B582B000AF78600B46FB70184B1B78002B29D0AA
S32D000124087B685A78164B1A707B689A78154B1A707B68DA78144B1A707B681A79134B1A707B6805331B78AA2B27
S32D000124300CBF01230023DAB20F4B1A700F4B01221A700D4B1B78002B08D00D4800F04CF80C4B1B680B4A23F437
S32D000124580053136000BF0837BD4680BD5D1A0020641A0020681A0020691A0020651A0020661A0020671A0020F7
S32D000124806C1A0020C0F00F4080B582B000AF786039607B68012B07D13B684FF6FF72934202D10348FFF760FF79
S32D000124A800BF0837BD4680BD5C1A002080B500AF4FF6FF710120FFF7E3FF80BD80B483B000AF7860054B002202
S32D000124D01A60044B00225A607B6818460C37BD4680BC70476C1A002080B584B000AF7860154B1B68002B21D029
S32D000124F80023FB60124B5B68FA689A4214DA114AFB6852F82330002B0AD00E4AFB6852F823301846FCF76DFA7B
S32D0001252003461A460A4B1A70FB680133FB60E5E7054B00225A60044B00221A60044B1B7818461037BD4680BD68
S32D000125486C1A0020781A0020741A002080B582B000AF786039607B68012B07D13B684FF6FF72934202D10348A4
S32D00012570FFF7A8FF00BF0837BD4680BD6C1A002080B500AF4FF6FF710120FFF7E3FF80BD80B483B000AF7860FE
S32D000125980A4B03F580531B6B084A43F0010302F580521363064B5B68054A43F03203536000BF0C37BD4680BCE7
S32D000125C0704700BF0070044000000A4038B5084C4FF41E652846E56001F0D8F9A06020B10023C0E9005360604C
S32D000125E838BDE060606038BDE01A002081F0004102E000BF83F0004330B54FEA41044FEA430594EA050F08BF7A
S32D0001261090EA020F1FBF54EA000C55EA020C7FEA645C7FEA655C00F0E2804FEA5454D4EB5555B8BF6D420CDD9D
S32D000126382C4480EA020281EA030382EA000083EA010180EA020281EA0303362D88BF30BD11F0004F4FEA013118
S32D000126604FF4801C4CEA113102D0404261EB410113F0004F4FEA03334CEA133302D0524263EB430394EA050F49
S32D0001268800F0A780A4F10104D5F1200E0DDB02FA0EFC22FA05F2801841F1000103FA0EF2801843FA05F359414E
S32D000126B00EE0A5F120050EF1200E012A03FA0EFC28BF4CF0020C43FA05F3C01851EBE37101F0004507D54FF0D4
S32D000126D8000EDCF1000C7EEB00006EEB0101B1F5801F1BD3B1F5001F0CD349085FEA30004FEA3C0C04F101040C
S32D000127004FEA445212F5800F80F09A80BCF1004F08BF5FEA500C50F1000041EB045141EA050130BD5FEA4C0CD2
S32D00012728404141EB0101013C28BFB1F5801FE9D291F0000F04BF01460020B1FA81F308BF2033A3F10B03B3F176
S32D0001275020020CDA0C3208DD02F1140CC2F10C0201FA0CF021FA02F10CE002F11402D8BFC2F1200C01FA02F1FD
S32D0001277820FA0CFCDCBF41EA0C019040E41AA2BF01EB0451294330BD6FEA04041F3C1CDA0C340EDC04F114048B
S32D000127A0C4F1200220FA04F001FA02F340EA030021FA04F345EA030130BDC4F10C04C4F1200220FA02F001FA33
S32D000127C804F340EA0300294630BD21FA04F0294630BD94F0000F83F4801306BF81F480110134013D4EE77FEA7E
S32D000127F0645C18BF7FEA655C29D094EA050F08BF90EA020F05D054EA000C04BF1946104630BD91EA030F1EBF2E
S32D000128180021002030BD5FEA545C05D14000494128BF41F0004130BD14F580043CBF01F5801130BD01F0004552
S32D0001284045F0FE4141F470014FF0000030BD7FEA645C1ABF194610467FEA655C1CBF0B46024650EA013406BF9A
S32D0001286852EA033591EA030F41F4002130BD00BF90F0000F04BF0021704730B54FF4806404F132044FF0000599
S32D000128904FF0000150E700BF90F0000F04BF0021704730B54FF4806404F1320410F0004548BF40424FF0000174
S32D000128B83EE700BF42004FEAE2014FEA31014FEA02701FBF12F07F4393F07F4F81F06051704732F07F4208BF23
S32D000128E0704793F07F4F04BF41F40021704730B54FF4607401F0004521F000411CE700BF50EA010208BF7047F0
S32D0001290830B54FF000050AE050EA010208BF704730B511F0004502D5404261EB41014FF4806404F132045FEA25
S32D00012930915C3FF4D8AE4FF003025FEADC0C18BF03325FEADC0C18BF033202EBDC02C2F1200300FA03FC20FA60
