S01100002E2E2F50726F746575732E73313966
S32D0000C000000000205DC2000011C3000017C300001DC3000023C3000029C3000000000000000000000000000073
S32D0000C028000000002FC3000035C30000000000003BC3000041C30000D9D90000E5D90000F1D90000FDD90000EE
S32D0000C05009DA000015DA000021DA00002DDA000039DA000045DA000051DA00005DDA000069DA000075DA0000C8
S32D0000C07881DA00008DDA000099DA0000A5DA0000B1DA0000BDDA0000C9DA0000D5DA0000E1DA0000EDDA0000F0
S32D0000C0A0F9DA000005DB000011DB00001DDB000029DB000035DB000041DB00004DDB000059DB000065DB00000F
S32D0000C0C871DB00007DDB000089DB000095DB0000A1DB0000ADDB0000B9DB0000C5DB0000D1DB0000DDDB000036
S32D0000C0F0E9DB00005D2D0100F5DB000001DC00000DDC000019DC000025DC000031DC00003DDC000049DC0000FC
S32D0000C11855DC000061DC00006DDC000079DC000085DC000091DC00009DDC0000A9DC0000B5DC0000C1DC0000F3
S32D0000C140CDDC0000D9DC0000E5DC0000F1DC0000C9050100FDDC000009DD000015DD000021DD00002DDD00005D
S32D0000C16839DD000045DD000051DD00005DDD000069DD000075DD000081DD00008DDD000099DD0000A5DD0000B1
S32D0000C190B1DD0000BDDD0000C9DD0000C101010089000100250101005DD7000061020100D5DD0000E1DD000037
S32D0000C1B8EDDD0000DCBE010000000020C8160000DCBE01000000FF1F00000000C8160020740400000000FF1FA9
S32D0000C1E00000000080B489B000AFF860B9607A60BB68FB61FB68BB6100237B617A697B689A420BD2BA69131DFB
S32D0000C208BB61FB69191DF96112681A607B6904337B61EFE700BF2437BD4680BC704780B485B000AF786039609E
S32D0000C2307B68FB600023BB60BA683B689A4208D2FB681A1DFA6000221A60BB680433BB60F2E700BF1437BD46FE
S32D0000C25880BC704780B586B000AF72B6234B4CF220521A80214B4DF628121A80204B4FF4E9721A801F4B7B615F
S32D0000C2807B691F4A934214D27B691A1D7A611B683B617B691A1D7A611B68FB607B691A1D7A611B68BB60BA68E9
S32D0000C2A8F9683869FFF79AFFE6E77B69134A93420ED27B691A1D7A611B68FB607B691A1D7A611B68BB60B9688B
S32D0000C2D0F868FFF7A8FFECE70B4B7B600B4A7B681A6008F0E9FE62B601F000FB00F0E4F8FEE700BF0E200540C7
S32D0000C2F800200540BCC10000D4C10000E4C1000008ED00E000C0000080B400AFFEE780B400AFFEE780B400AFF4
S32D0000C320FEE780B400AFFEE780B400AFFEE780B400AFFEE780B400AFFEE780B400AFFEE780B400AFFEE780B426
S32D0000C34800AFFEE7FFFFFFFFFFFFFFFFFFFFFFFFFFFFFFFFFFFFFFFFFFFFFFFFFFFFFFFFFFFFFFFFFFFFFFFF57
S32D0000C370FFFFFFFFFFFFFFFFFFFFFFFFFFFFFFFFFFFFFFFFFFFFFFFFFFFFFFFFFFFFFFFFFFFFFFFFFFFFFFFFC7
S32D0000C398FFFFFFFFFFFFFFFFFFFFFFFFFFFFFFFFFFFFFFFFFFFFFFFFFFFFFFFFFFFFFFFFFFFFFFFFFFFFFFFF9F
S32D0000C3C0FFFFFFFFFFFFFFFFFFFFFFFFFFFFFFFFFFFFFFFFFFFFFFFFFFFFFFFFFFFFFFFFFFFFFFFFFFFFFFFF77
S32D0000C3E8FFFFFFFFFFFFFFFFFFFFFFFFFFFFFFFFFFFFFFFFFFFFFFFFFFFFFFFFFFFFFFFFFFFFFFFFFEFFFFFF50
S32D0000C44010B5054C237833B9044B13B10448AFF300800123237010BDC81600200000000010C4000008B5034B4F
S32D0000C4681BB103490348AFF3008008BD00000000CC16002010C4000080B483B000AFC7E900013A68796821F02B
S32D0000C4900043104619460C37BD4680BC704780B483B000AF78607B6823F0004318460C37BD4680BC704700008F
S32D0000C4B8B0B586B000AF4149414807F0EFF8414B3C461D460FCD0FC495E8030084E803004FF47F013C4804F0D1
S32D0000C4E0E3FD3B4804F0C1FD0021394804F0DCFD384806F0D9FA03461946354805F031F8354803F02DFF02463A
S32D0000C5087B6801210C461946104608F0FFFB0346002B01D100231C46E3B2002B0DD02C4803F01AFF0346194677
S32D0000C530274804F08BFF4FF00000284903F0BEFBDEE72749224804F0AFFD214804F08DFD4FF00002234B244853
S32D0000C55800F042FA00F086F800F072FC00F0A0F800F0E4FD00F00AFA00F0CCFB00F034FC022000F06DF900F031
S32D0000C58047F9012000F098FC00F0E4F84FF0FF3000F0E8FD4FF00000144903F08FFB012000F0E0FD00F024F886
S32D0000C5A84FF40041084804F07BFD074804F059FD002318461837BD46B0BD00BFD4B301005C1A0020E0B30100DB
S32D0000C5D0F4190020401A0020E41600200000D03F00A5FF0000001840000070C20000F83F80B500AF01221449A4
S32D0000C5F8144800F065FF4FF0FF321149114800F05FFF4FF00002104B0E4800F0E5F94FF000020E4B0E4800F054
S32D0000C620DFF901220D49094800F0E6FC4FF000020B4B094800F0D4F94FF00002094B0A4800F0CEF900BF80BD39
S32D0000C648000020410000F0410000284000003E400000F0C100003442000024400000F03F000070C280B500AF7C
S32D0000C6704FF00002084B094800F0B2F94FF0FF320749064800F0B8FC02220649034800F07FFA00BF80BD00BF88
S32D0000C698000038400000F041000034420000C04080B500AF4FF0FF321E491F4800F008FF01221C491C4800F060
S32D0000C6C003FF4FF000021B4B194800F089F94FF00002194B194800F083F901221349174800F08AFC4FF00002C9
S32D0000C6E8154B164800F078F94FF0FF320D49114800F07EFC4FF00002114B0B4800F06CF94FF000020F4B0B4849
S32D0000C71000F066F901220549084800F06DFC02220B49064800F034FA00BF80BD0000B4420000F0C100003E408D
S32D0000C738000008400000F041000042400000164200001840000024400000904180B500AF01222649264800F01F
S32D0000C760B3FE4FF0FF322349234800F0ADFE4FF00002224B204800F033F94FF000024FF080431F4800F02CF927
S32D0000C7884FF0FF3219491C4800F032FC4FF000021A4B194800F020F901221449164800F027FC4FF00002164B8C
S32D0000C7B0134800F015F901220E49114800F01CFC4FF00002104B0C4800F00AF94FF000020E4B0B4800F004F96A
S32D0000C7D84FF0FF320549084800F00AFC4FF00002074B054800F0F8F800BF80BD0000B4420000F0C1000032405A
S32D0000C8000000F04100003840000028400000204080B500AF4FF000020B4B0C4800F0E0F84FF0FF320A490A48ED
S32D0000C82800F0E6FB4FF00002084B074800F0D4F801220549044800F043FE00BF80BD00BF000038400000F0C1A0
S32D0000C8500000F0410000284080B584B000AF0346FB710023FB60FB79022B73D1FB68092B70DC00F01FF90346BD
S32D0000C878184600F0F1F90346FB71FB79022B58D0022B61DC002B02D0012B35D05CE001223049314800F0ACFB5C
S32D0000C8A04FF000022F4B2E4800F09AF84FF0FF322A492B4800F0A0FB02222B49284800F067F94FF00002274BCB
S32D0000C8C8284800F089F84FF000024FF08043264800F082F801221F491F4800F089FB4FF00002224B204800F0DA
S32D0000C8F077F84FF0FF321949194800F07DFB28E04FF0FF321549164800F076FB4FF00002144B134800F064F834
S32D0000C91801221049104800F06BFB022210490E4800F032F94FF000020C4B0E4800F054F80BE00F490F4804F021
S32D0000C940FDFD4FF000020E4B094800F049F800E000BF88E700BF1037BD4680BD0000B4420000F0410000F03F09
S32D0000C9680000C040000070420000F0C100000840F8B30100F41900200000204080B500AF4FF000020E4B0F48E8
S32D0000C99000F026F84FF0FF320D490D4800F02CFB4FF000020B4B0A4800F01AF801220A49074800F021FB4FF03E
S32D0000C9B80002084B034800F00FF800BF80BD00BF000008400000F0C10000F041000010400000344300001840B6
S32D0000C9E090B58BB000AFF860C7E900232CA3D3E90023D7E9000107F07BFB02460B461046194602460B4607F015
S32D0000CA08BDF902460B461046194607F01DFE0346BB61234803F07EFC224803F07BFCF86800F018FA78617869BD
S32D0000CA3000F0A2FC00237B621B4803F05DFC04461A4803F059FC034623443B620023FB613A6ABB699A421ADA43
S32D0000CA58FB69154A934216DC3A6A7B6A9A4203D1FB690133FB6101E00023FB613B6A7B620B4803F03DFC04464E
S32D0000CA800A4803F039FC034623443B62E0E700F05BFC00BF2C37BD4690BD00BFAFF3008075524D20983E4440D2
S32D0000CAA804170020081700209F86010080B500AF02224FF08241044800F066F8034803F04BFC0346184680BDB3
S32D0000CAD00000F041E416002080B584B000AF78600B46FB70FB78184600F072FB0346FB73FB7B042B44D801A2F8
S32D0000CAF852F823F011CB00003FCB00006DCB000057CB000029CB00004FF08041786807F0F5FF03464FF0FF31FC
S32D0000CB20184600F063FD2CE04FF08041786807F0E9FF03460121184600F058FD21E04FF08041786807F0DEFFAB
S32D0000CB4803464FF0FF31184600F076FD15E04FF08041786807F0D2FF03460121184600F06BFD0AE04FF080419E
S32D0000CB70786807F0C7FF0346184600F0FDFB00E000BFFB7B18461037BD4680BD0000000090B58BB000AFF860EA
S32D0000CB98B9601346FB71B86807F04EFA2AA3D3E9002307F0A1FA02460B461046194607F04BFD03467B612648D4
S32D0000CBC003F0ACFB254803F0A9FBFB7987F82730214803F091FB0446204803F08DFB034623443B620023FB617E
S32D0000CBE80023BB613A6A7B699A4222DABB69C72B1FDC3A6AFB699A4203D1BB690133BB6101E00023BB613B6A7E
S32D0000CC10FB61114803F070FB0446104803F06CFB034623443B6297F827301946F868FFF753FF034687F827308E
S32D0000CC38D8E700F085FB97F8273018462C37BD4690BD00BFAFF3008075524D20983E54400417002008170020AF
S32D0000CC60B0B588B000AF7860194B07F108041D460FCD0FC495E8030084E803003B691946786808F029F80346D4
S32D0000CC88002B09D07B691946786808F03FF80346002B01D0012312E0BB691946786808F017F80346002B09D016
S32D0000CCB0FB691946786808F02DF80346002B01D0002300E0022318462037BD46B0BD00BFE0B3010080B500AFCD
S32D0000CCD84FF00002024B0348FFF77EFE00BF80BD000020400000F0C180B500AF4FF00002024B0348FFF770FEB5
S32D0000CD0000BF80BD00002040000016C280B582B000AF00237B60FFF7EBFF2B4806F0EEFE0346002B04D17B685C
S32D0000CD28042B01DC012300E00023002B10D07B6801337B604FF00002224B2348FFF74CFE01222249204800F06E
S32D0000CD5053F9FFF7CDFFE0E700237B6001221E491B4800F049F94FF000021C4B1848FFF737FE4FF0FF321849BF
S32D0000CD78154800F03DF9FFF7A9FF114806F0BAFE0346012B04D17B68042B01DC012300E00023002B10D07B6817
S32D0000CDA001337B604FF00002084B0948FFF718FE01220849064800F01FF9FFF78BFFE0E700BF0837BD4680BD16
S32D0000CDC85C1A0020000018400000F041000020410000B4420000F83F80B500AF4FF00002104B1148FFF7F8FDCC
S32D0000CDF0012210490E4800F0FFF84FF000020E4B0B48FFF7EDFD01220C49094800F0F4F84FF000020A4B0B4801
S32D0000CE18FFF7E2FD4FF00002054B0348FFF7DCFD00BF80BD000008400000F04100003442000028400000B44223
S32D0000CE40000032400000F0C180B500AF024800F0A7FA00BF80BD00BF00003443B0B582B000AF7860124805F043
S32D0000CE681FFE0346184607F0E7F802460B464FF000000E4907F062FA02460B4614461D46786807F0D9F802463A
S32D0000CE900B462046294607F02BF902460B461046194607F01DFC034618460837BD46B0BD401A0020000027409E
S32D0000CEB890B58BB000AF0346FB71454BBB61B86907F0BAF840A3D3E9002307F00DF902460B461046194602469D
S32D0000CEE00B4606F04FFF02460B461046194607F0AFFB03467B61394803F010FA384803F00DFA97F9073018465E
S32D0000CF0807F088F84FF00002344B07F0EDF802460B461046194607F0DFFB03461846FFF799FF38612E4BFB6027
S32D0000CF3039692E4800F0E0FFF968386907F02EFD034619462A4800F0D7FF244803F0D4F90446234803F0D0F94B
S32D0000CF58034623447B6200233B620023FB611D4803F0C6F904461C4803F0C2F9034623447A699A4205DDFB69B7
S32D0000CF801C4A934201DC012300E00023002B16D07A6A3B6A9A4203D1FB690133FB6101E00023FB617B6A3B6224
S32D0000CFA80C4803F0A5F904460B4803F0A1F9034623447B62D3E700F0C3F900BF2C37BD4690BD00BFAFF3008006
S32D0000CFD075524D20983E44400000A040041700200817002000004940CDCC8C3FF4160020FC1600209F860100DC
S32D0000CFF890B58DB000AFF860B9601346FB71444B3B624449B86807F079FD0346FB61F969386A07F0BFFC0346BA
S32D0000D020184607F00DF83AA3D3E9002307F060F802460B461046194602460B4606F0A2FE02460B4610461946B2
S32D0000D04807F002FB0346BB61334803F063F9334803F060F997F90730184607F047FC0346F968184607F096FCE0
S32D0000D07003461846FFF7F2FE78617B6983F000431946294800F038FF7969284800F034FF234803F031F9044654
S32D0000D098224803F02DF903462344FB620023BB6200237B621C4803F023F904461B4803F01FF903462344BA699C
S32D0000D0C09A4205DD7B6A1A4A934201DC012300E00023002B16D0FA6ABB6A9A4203D17B6A01337B6201E000231E
S32D0000D0E87B62FB6ABB620C4803F002F904460B4803F0FEF803462344FB62D3E700F020F900BF3437BD4690BDA9
S32D0000D11075524D20983E44405E36B6410000B4430417002008170020F4160020FC1600209F86010080B500AF01
S32D0000D138064800F031F94FF00002054B0548FFF74BFC054800F028F900BF80BD0000B4C2000008400000F0C17D
S32D0000D1600000B44280B582B000AF0346FB711448FFF774FE03461946124800F0BDFE97F90730184606F04AFF0B
S32D0000D1884FF000020E4B06F0AFFF02460B46104619464FF000024FF0804307F0CFF802460B464FF000000749C4
S32D0000D1B000F036F900F0C8F800BF0837BD4680BD00002041F4160020008076400000494080B586B000AF034697
S32D0000D1D8FB71514803F0C0F87861504803F0BCF838614F4803F0B8F8F860786906F024FF45A3D3E9002307F07E
S32D0000D20007FA0346002B18D0F86806F019FF42A3D3E9002307F0DEF90346002B0DD04349434804F08BF93E483D
S32D0000D22803F09AF8034619463F4804F096F9012366E0F86806F000FF35A3D3E9002307F0E3F90346002B18D0FC
S32D0000D250786906F0F5FE2EA3D3E9002307F0BAF90346002B0DD03349314804F067F92E4803F076F80346194673
S32D0000D2782D4804F072F9032342E0786906F0DCFE21A3D3E9002307F0A1F90346002B13D0F86806F0D1FE1EA34A
S32D0000D2A0D3E9002307F096F90346002B08D0FB79012B05D120491E4804F040F9002323E0F86806F0BDFE14A34F
S32D0000D2C8D3E9002307F082F90346002B13D0786906F0B2FE0CA3D3E9002307F077F90346002B08D0FB79032B26
S32D0000D2F005D112490E4804F021F9042304E010490B4804F01BF9022318461837BD4680BD85EB51B81E85074047
S32D0000D3187B14AE47E17A0640E8160020EC160020F0160020FCB30100F419002004B4010010B401001CB4010030
S32D0000D34028B401000000000080B500AF084800F091FD084800F08EFD03A1D1E9000102F0ADFC00BF80BD00BFB0
S32D0000D3689A9999999999C93FF4160020FC16002080B582B000AF78607968054800F0B8FD7968044800F0B4FD0D
S32D0000D39000BF0837BD4680BDF4160020FC16002080B586B000AF78601A4B7B617868FFF776F8034619467868D6
S32D0000D3B807F0A4FB03467969184607F0EBFA03461846FFF747FD38611149786807F096FB0346FB6002F094FCEA
S32D0000D3E002460B461046194607F07AF90346BB6039690A4800F080FDF868FFF750F80346184602F03BFC0548E7
S32D0000D40800F034FD00BF1837BD4680BD00002041000028420C17002080B588B000AFC7E90201C7E90023D7E917
S32D0000D4300001FFF725F802460B46D7E9000106F081FF02460B4610461946D7E9022306F04FFE02460B46104685
S32D0000D458194607F041F903461846FFF7FBFCF8614FF00002144BD7E9000106F067FF02460B461046194607F027
S32D0000D4802FF90346BB6102F03FFC02460B461046194607F025F903467B61F969094800F02BFDB869FEF7FBFF61
S32D0000D4A80346184602F0E6FB044800F0DFFC00BF2037BD4680BD00BF000045400C17002090B58DB000AFF8605F
S32D0000D4D0B9601346FB713E4B3B623E49B86807F011FB0346FB61F969386A07F057FA0346184606F0A5FD34A379
S32D0000D4F8D3E9002306F0F8FD02460B461046194607F0A2F80346BB61314802F003FF314802F000FFF868FFF7CB
S32D0000D5209DFC786197F90730B3F1FF3F02D0012B05D009E079692A4800F0DEFC04E07969284800F0D9FC00BF2E
S32D0000D548234802F0D5FE0446224802F0D1FE03462344FB620023BB6200237B621C4802F0C7FE04461B4802F009
S32D0000D570C3FE03462344BA699A4205DD7B6A1A4A934201DC012300E00023002B16D0FA6ABB6A9A4203D17B6AEA
S32D0000D59801337B6201E000237B62FB6ABB620C4802F0A6FE04460B4802F0A2FE03462344FB62D3E7FFF7C4FE59
S32D0000D5C000BF3437BD4690BD75524D20983E44405E3636420000B4430417002008170020F4160020FC1600205C
S32D0000D5E89F86010080B584B000AF78600B46FB707868FFF72FFCF86097F90330B3F1FF3F02D0012B08D00FE080
S32D0000D610094800F02FFCF968084800F06DFC07E0064800F027FCF968034800F065FC00BF00BF1037BD4680BD2C
S32D0000D638FC160020F416002080B584B000AF78600B46FB707868FFF705FCF86097F90330B3F1FF3F02D0012BEA
S32D0000D6600FD01DE04FF08041F86807F04BFA034619460D4800F040FCF9680C4800F03CFC0EE04FF08041F868D0
S32D0000D68807F03CFA03461946064800F031FCF968034800F02DFC00BF00BF1037BD4680BDFC160020F41600200E
S32D0000D6B080B582B000AF786039607B68012B2BD13B684FF6FF72934226D10821144802F037FE0021134802F07B
S32D0000D6D833FE0121124802F02FFE0221114802F02BFE114A0021114800F082FB0E4A01210F4800F07DFB052120
S32D0000D7000E4802F04BFB19210D4802F047FB0D4A02210D4800F070FB00BF0837BD4680BDE4160020E81600200A
S32D0000D728EC160020F016002000001041F4160020FC16002004170020081700206666E6400C17002080B500AF4B
S32D0000D7504FF6FF710120FFF7ABFF80BD80B500AF0F4BD3F8A03003F48053002B14BF01230023DBB2002B10D078
S32D0000D778094BD3F8A030084A23F48053C2F8A030064806F06FFA064B1B68054A23F40053136000BF80BD00BF66
S32D0000D7A000C004406C1A0020C0F00F4080B400AF124B4FF480725A63114B5B69104A43F4005353610E4B1B68EC
S32D0000D7C80D4A43F4005313600A4B0C4A1A630C4BD3F888310A4A43F08063C2F88831084B9B68074A43F0806342
S32D0000D7F0936000BFBD4680BC704700BF00C00440C0F00F4003010A0000E100E080B400AF334B00225A70324B08
S32D0000D81898221A70304B9B79DBB203F01003002B14BF01230023DBB2002B00D0F2E72A4B9B79DBB29B08DBB290
S32D0000D84003F00303022B14BF01230023DBB2002B00D0F0E7224B18221A71214B00225A71204B03F580531A46FA
S32D0000D8681F4B53641C4B54225A711B4B9B79DBB203F02003002B0CBF01230023DBB2002B00D0F2E7144B9B799B
S32D0000D890DBB203F04003002B0CBF01230023DBB2002B00D0F2E70E4B1B78DBB20C4A03F03F03DBB213700A4BA0
S32D0000D8B89B79DBB29B08DBB203F00303032B14BF01230023DBB2002B00D0F0E700231846BD4680BC704700BF9B
S32D0000D8E000400640007004400000130180B500AF314B03F580539B6B2F4A43F4785302F580529363FFF752FF1A
S32D0000D908FFF780FF2B4B58221A602A4B1B684FF47A7202FB03F3284A1360274B1B681A46234B03F580535B6CBE
S32D0000D9301B0E03F00F030133B2FBF3F31A46214B1A601D4B03F58053DB6B1B4A43F0225302F58052D363184BA6
S32D0000D95803F580531B6B164A43F0006302F580521363174B4FF480721A61642002F058F8134B5B69124A23F0B2
S32D0000D98010035361104B00221A600F4B10225A610E4803F0F7F902F0CBFD02F029FE0C4802F0A4F80B4806F03D
S32D0000D9A8B5F94FF4FA6002F04FF900BF80BD00BF00700440401900203C1900204419002000D00340F4190020B2
S32D0000D9D038190020DC1A002080B500AFFEF7B3FC00BF80BD80B500AFFEF7ADFC00BF80BD80B500AFFEF7A7FC24
S32D0000D9F800BF80BD80B500AFFEF7A1FC00BF80BD80B500AFFEF79BFC00BF80BD80B500AFFEF795FC00BF80BDC1
S32D0000DA2080B500AFFEF78FFC00BF80BD80B500AFFEF789FC00BF80BD80B500AFFEF783FC00BF80BD80B500AFE6
S32D0000DA48FEF77DFC00BF80BD80B500AFFEF777FC00BF80BD80B500AFFEF771FC00BF80BD80B500AFFEF76BFC7C
S32D0000DA7000BF80BD80B500AFFEF765FC00BF80BD80B500AFFEF75FFC00BF80BD80B500AFFEF759FC00BF80BDFC
S32D0000DA9880B500AFFEF753FC00BF80BD80B500AFFEF74DFC00BF80BD80B500AFFEF747FC00BF80BD80B500AF22
S32D0000DAC0FEF741FC00BF80BD80B500AFFEF73BFC00BF80BD80B500AFFEF735FC00BF80BD80B500AFFEF72FFCF4
S32D0000DAE800BF80BD80B500AFFEF729FC00BF80BD80B500AFFEF723FC00BF80BD80B500AFFEF71DFC00BF80BD38
S32D0000DB1080B500AFFEF717FC00BF80BD80B500AFFEF711FC00BF80BD80B500AFFEF70BFC00BF80BD80B500AF5D
S32D0000DB38FEF705FC00BF80BD80B500AFFEF7FFFB00BF80BD80B500AFFEF7F9FB00BF80BD80B500AFFEF7F3FB6E
S32D0000DB6000BF80BD80B500AFFEF7EDFB00BF80BD80B500AFFEF7E7FB00BF80BD80B500AFFEF7E1FB00BF80BD76
S32D0000DB8880B500AFFEF7DBFB00BF80BD80B500AFFEF7D5FB00BF80BD80B500AFFEF7CFFB00BF80BD80B500AF9C
S32D0000DBB0FEF7C9FB00BF80BD80B500AFFEF7C3FB00BF80BD80B500AFFEF7BDFB00BF80BD80B500AFFEF7B7FBE7
S32D0000DBD800BF80BD80B500AFFEF7B1FB00BF80BD80B500AFFEF7ABFB00BF80BD80B500AFFEF7A5FB00BF80BDB2
S32D0000DC0080B500AFFEF79FFB00BF80BD80B500AFFEF799FB00BF80BD80B500AFFEF793FB00BF80BD80B500AFD7
S32D0000DC28FEF78DFB00BF80BD80B500AFFEF787FB00BF80BD80B500AFFEF781FB00BF80BD80B500AFFEF77BFB5E
S32D0000DC5000BF80BD80B500AFFEF775FB00BF80BD80B500AFFEF76FFB00BF80BD80B500AFFEF769FB00BF80BDED
S32D0000DC7880B500AFFEF763FB00BF80BD80B500AFFEF75DFB00BF80BD80B500AFFEF757FB00BF80BD80B500AF13
S32D0000DCA0FEF751FB00BF80BD80B500AFFEF74BFB00BF80BD80B500AFFEF745FB00BF80BD80B500AFFEF73FFBD6
S32D0000DCC800BF80BD80B500AFFEF739FB00BF80BD80B500AFFEF733FB00BF80BD80B500AFFEF72DFB00BF80BD29
S32D0000DCF080B500AFFEF727FB00BF80BD80B500AFFEF721FB00BF80BD80B500AFFEF71BFB00BF80BD80B500AF4F
S32D0000DD18FEF715FB00BF80BD80B500AFFEF70FFB00BF80BD80B500AFFEF709FB00BF80BD80B500AFFEF703FB4D
S32D0000DD4000BF80BD80B500AFFEF7FDFA00BF80BD80B500AFFEF7F7FA00BF80BD80B500AFFEF7F1FA00BF80BD67
S32D0000DD6880B500AFFEF7EBFA00BF80BD80B500AFFEF7E5FA00BF80BD80B500AFFEF7DFFA00BF80BD80B500AF8D
S32D0000DD90FEF7D9FA00BF80BD80B500AFFEF7D3FA00BF80BD80B500AFFEF7CDFA00BF80BD80B500AFFEF7C7FAC9
S32D0000DDB800BF80BD80B500AFFEF7C1FA00BF80BD80B500AFFEF7BBFA00BF80BD80B500AFFEF7B5FA00BF80BDA3
S32D0000DDE080B500AFFEF7AFFA00BF80BD80B500AFFEF7A9FA00BF80BD80B584B000AFF8600B467A60FB72FB68B4
S32D0000DE08FA7A1A71FB6800225A711749786806F07DFF0346002B02D0134B7B600AE04FF07E51786806F05EFF41
S32D0000DE300346002B02D04FF07E537B60786806F0FFF809A3D3E9002306F052F902460B461046194606F044FC76
S32D0000DE580246FB681A60FB6818461037BD4680BDABAAAAAAAAAA20400000404180B582B000AF78607B685B79AC
S32D0000DE80002B09D07B6800225A717B6819791E230022034801F064FE00BF0837BD4680BD3819002080B584B012
S32D0000DEA800AF786039603B687F2B02DD7F23FB7308E03B6813F1800F02DA8023FB7301E03B68FB737B685B793C
S32D0000DED0FA7B9A4209D07B68FA7B5A717B681979FA7B1E23034801F03BFE00BF1037BD4680BD00BF38190020C1
S32D0000DEF8B0B584B000AF786039603749386806F0E7FE0346002B02D0334B3B6008E03349386806F0FBFE0346AD
S32D0000DF20002B01D02F4B3B60386806F089F804460D467B681B68184606F082F84FF00002294B06F0FFF90246EF
S32D0000DF480B462046294606F0CFF802460B461046194606F0C1FB03463B604FF00001386806F0CAFE0346002BD2
S32D0000DF7010D0386806F064F817A3D3E9002306F0B7F802460B461046194606F061FB0346FB6018E0386806F0A1
S32D0000DF9853F84FF00002134B06F0A6F802460B46104619464FF000020D4B06F0C7F902460B461046194606F0FC
S32D0000DFC047FB0346FB60F9687868FFF76BFF00BF1037BD46B0BD00BF52B81E85EB51F43F0000C8C20000C842C7
S32D0000DFE8000059400000604080B483B000AF03460A46FB711346BB71BB79002B03D1134B00221A7002E0114BB7
S32D0000E01001221A703823FB710E4B1A78FB791343FB710D4B9B78DBB20B4A43F01003DBB29370094B9B78DBB236
S32D0000E038074A43F02003DBB29370054AFB79137100BF0C37BD4680BC704700BF141700200060064080B483B02D
S32D0000E06000AF01237B607B68312B04DC00BF7B6801337B60F7E700BF0C37BD4680BC704780B582B000AF0346DF
S32D0000E0880A46FB711346BB71134B1B7800211846FFF7AAFF00F024F8104AFB79137100F01FF80E4ABB791371A5
S32D0000E0B000F01AF80B4B9B78DBB20A4A23F02003DBB29370074B9B78DBB2064A23F01003DBB29370FFF7C2FF81
S32D0000E0D800BF0837BD4680BD151700200060064080B483B000AF174B1B78002B24D100237B60154BDB78DBB281
S32D0000E10003F00203002B0CBF01230023DBB2002B0DD07B6842F21072934203DD0B4B01221A7004E07B680133DB
S32D0000E1287B6000BFE5E7084BDB78DBB2064A43F00203DBB2D37000E000BF0C37BD4680BC704700BF16170020F4
S32D0000E1500060064080B582B000AF0346FB71FB79184600F05FF800BF0837BD4680BD80B582B000AF03460A462A
S32D0000E178FB711346BB7100F035F8FB795B00DBB21846FFF7E3FFBB791846FFF7DFFF00F037F800BF0837BD4653
S32D0000E1A080BD80B500AFFF2000F03CF80346184680BD80B584B000AF0346FB7100F016F8FB795B005BB243F02F
S32D0000E1C801035BB2DBB21846FFF7C0FFFFF7E5FF0346FB7300F014F8FB7B18461037BD4680BD000080B400AFAD
S32D0000E1F0044B9B68034A43F48013936000BFBD4680BC704740F00F4080B400AF044B5B68034A43F480135360B2
S32D0000E21800BFBD4680BC704740F00F4080B485B000AF0346FB710023BB73164BDB6A03F00043012B0CBF01238F
S32D0000E2400023DBB2002B03D0FB7B0133FB73F0E70E4BDB6A0D4A43F00043D3620B4AFB7953630A4BDB6A03F463
S32D0000E2680033002B0CBF01230023DBB2002B00D0F3E7044B9B6BBB73BB7B18461437BD4680BC704700C00A4054
S32D0000E29080B582B000AF204B03F580531B6B1E4A43F4805302F5805213631C4B4FF480721A651B4B5B691A4A34
S32D0000E2B843F480135361FFF7A3FF164B4FF400725A65144B4FF400729A65124B4FF40072DA65124B124A1A60B6
S32D0000E2E0104B124ADA6000237B607B68092B06DCFF20FFF72FFF7B6801337B60F5E704A1D1E9000101F0DAFCF0
S32D0000E30800BF0837BD4680BD9A9999999999B93F0070044000A0044040F00F4000C00A40000C00800500003E2A
S32D0000E33090B486B000AFF860B9607A60FB68534A93420AD1524B03F580535B6B504A43F4806302F5805253633A
S32D0000E35845E0FB684D4A93420AD14B4B03F580535B6B494A43F4006302F58052536336E0FB68474A93420AD13B
S32D0000E380434B03F580535B6B414A43F4805302F58052536327E0FB68404A93420AD13C4B03F580535B6B3A4AFC
S32D0000E3A843F4005302F58052536318E0FB683A4A93420AD1344B03F580539B6A324A43F4806302F5805293620C
S32D0000E3D009E02F4B03F580539B6A2D4A43F4006302F580529362FB68DB78DBB223F00C03DAB2FB68DA70FB681C
S32D0000E3F800229A70BB684FF47A7203FB02F27B681B0192FBF3F39CB2FB681B78DBB223F01F03FB75230A9BB225
S32D0000E420DBB203F01F03DAB2FB7D1343DAB2FB681A70E2B2FB685A70BB684FF4FA4203FB02F27B681B0192FB78
S32D0000E448F3F39AB263019BB2D31A9CB2FB689B7ADBB223F01F03FB75E3B203F01F03DAB2FB7D1343DAB2FB68EB
S32D0000E4709A72FB68DB78DBB243F00C03DAB2FB68DA7000BF1837BD4690BC704700A006400070044000B0064010
S32D0000E49800C0064000D0064000A00E4080B483B000AF78607B681B79DBB203F02003002B0CBF01230023DBB27A
S32D0000E4C0002B00D0F2E77B68DB79DBB218460C37BD4680BC704780B483B000AF78600B46FB707B681B79DBB251
S32D0000E4E85BB2DB43DBB2DB09DBB2002B00D0F4E77B68FA78DA7100BF0C37BD4680BC704780B487B000AFF860FD
S32D0000E510B9607A60FB687B617B685A1E7A60002B14BF01230023DBB2002B06D07B695A1C7A61BA68D2B21A703E
S32D0000E538EEE700BF1C37BD4680BC704780B584B000AF786039607B681B6BFB60FA683B689A4252D07B681B7911
S32D0000E560002B35D07B6858787B6803F134010123FA6801F0F7F80346002B14BF01230023DBB2002B01D00123FD
S32D0000E5883CE07B6800221A717B685A6A7B681B6A1344FA689A4217D27B68DB78FB72FB7A012B11D97B681B6A96
S32D0000E5B0FA681344FB607B6858787B6803F134010123FA6801F0CEF8FB7A013BFB72EAE73B68002B15D07B68A8
S32D0000E5D858787B6803F1340101233A6800F0DAFF0346002B14BF01230023DBB2002B01D0012303E07B683A6807
S32D0000E6001A63002318461037BD4680BD80B584B000AF786000217868FFF794FF0346FB73FB7B002B40F0938052
S32D0000E6287B681B78032B7DD17B685B79002B79D07B6800221A637B6834334FF4007200211846FFF75DFF7B6872
S32D0000E650552283F832227B68AA2283F833227B68522283F834207B68522283F835207B68612283F836207B6870
S32D0000E678412283F837207B68722283F818227B68722283F819227B68412283F81A227B68612283F81B227B68E8
S32D0000E6A01B69DAB27B6883F81C227B681B699BB21B0A9BB2DAB27B6883F81D227B681B691B0CDAB27B6883F8D9
S32D0000E6C81E227B681B691B0EDAB27B6883F81F227B68DB68DAB27B6883F820227B68DB689BB21B0A9BB2DAB266
S32D0000E6F07B6883F821227B68DB681B0CDAB27B6883F822227B68DB681B0EDAB27B6883F823227B6858787B68CC
S32D0000E71803F134017B685A69012301F01FF87B6800225A717B685B7800220021184601F0E1F80346002B14BFA0
S32D0000E74001230023DBB2002B01D00123FB73FB7B18461037BD4680BD80B582B000AF78600B467B807B68002BA6
S32D0000E76808D07B681B78002B04D07B68DB887A889A4201D0092311E07B685B78184601F03BF9034603F00103AB
S32D0000E790002B14BF01230023DBB2002B01D0032300E0002318460837BD4680BD80B586B000AF78607B681A6830
S32D0000E7B87B689B8819461046FFF7CAFF0346FB75FB7D002B40F0AC807B689B7903F02003002B00F0A5807B68D1
S32D0000E7E09B7903F04003002B1BD07B681B6858787B6803F128017B689A69012300F0B2FF0346002B14BF01235F
S32D0000E8080023DBB2002B01D001238AE07B689B7923F04003DAB27B689A717B681A687B68DB6919461046FFF7AA
S32D0000E83089FE0346FB75FB7D002B75D17B681B6A3B613B690B331A783B690B3342F02002D2B21A707B68DA68B0
S32D0000E8583B691C33D2B21A707B68DB689BB21B0A9AB23B691D33D2B21A707B68DB681A0C3B691E33D2B21A705C
S32D0000E8807B68DB681A0E3B691F33D2B21A707B681A693B691A33D2B21A707B681B699BB21B0A9AB23B691B339C
S32D0000E8A8D2B21A707B681B691A0C3B691433D2B21A707B681B691B0C9BB21B0A9AB23B691533D2B21A70002345
S32D0000E8D0FB603B691633FA68D2B21A70FB689BB21B0A9AB23B691733D2B21A70FB681A0C3B691833D2B21A70BF
S32D0000E8F8FB681A0E3B691933D2B21A707B689B7923F02003DAB27B689A717B681B6801221A717B681B681846EA
S32D0000E920FFF774FE0346FB75FB7D18461837BD4680BD80B584B000AF78607868FFF736FF0346FB73FB7B002BF0
S32D0000E94802D17B6800221A60FB7B18461037BD4680BD000080B588B000AF7860396080233B610F23FB604FF05C
S32D0000E970FF337B610223FB61FB69B3F5807F23D80123BB61BB69102B1AD8FB69BA6902FB03F33A6803FB02F245
S32D0000E9987B68D31ABB60BB68002B09DBBB687A699A4205D9BB687B61FB693B61BB69FB60BB690133BB61E1E7BA
S32D0000E9C0FB695B00FB61D7E71D4BDB6A1C4A23F00803D3621A4BDB6A23F47F2323F47F63BB613B695B081B024E
S32D0000E9E89AB2FB68013B1B01DBB21A43BB691343114A43F46023D3620F4B5B6A03F00803002B0CBF01230023F2
S32D0000EA10DBB2002B03D00A2001F01AF9F0E7084BDB6A074A43F00803D362054B1B6B044A43F48013136300BFC9
S32D0000EA382037BD4680BD00BF00100B4080B582B000AF786039607B6800221A60414B424ADA62404BDB6A03F0E2
S32D0000EA608073002B14BF01230023DBB2002B00D0F3E73A4B0022C3F8C020384B4FF481325A60364B28229A62B2
S32D0000EA88344B4FF001125A643B689B6833491846FFF760FF2F4B5B6A03F00303002B14BF01230023DBB2002BC7
S32D0000EAB000D0F3E72C4B40F243421A602A4B40F243425A60284B4FF488629A60264B40F24342DA60244B40F263
S32D0000EAD843421A61224B40F243425A61214B03F580531B6B1F4A43F4003302F580521363184B4FF6FF721A63CC
S32D0000EB00164B1B4A5A63154BDB6A144A43F00063D362124BDB6A03F00063002B14BF01230023DBB2002B00D0D1
S32D0000EB28F3E70C4B5B6A03F48033002B14BF01230023DBB2002B02D07B6801221A60054B1B6B044A43F08003F6
S32D0000EB501363002318460837BD4680BD00100B400080000160CC050000D0044000700440B3007F0080B400AF37
S32D0000EB78064B5A6A40F207331340002B14BF01230023DBB21846BD4680BC704700100B4080B485B000AF78602A
S32D0000EBA0074B1B6B7A681340FB60FB68002B00D1F6E7FB6818461437BD4680BC704700BF00100B4080B584B01E
S32D0000EBC800AF78607B681B7803F03F03764A52F82330FB60FB68002B05D17B681B78002B01D00123DCE0714BC3
S32D0000EBF01B6B704A43F0800313636E4B5B6A03F00103002B14BF01230023DBB2002B00D0F3E7684A7B685B6817
S32D0000EC189360FB6823F44003FB607B685B789B0503F44003FA681343FB607B685B78022B03D1FB6843F40013BC
S32D0000EC40FB607B685B78042B16D1FB6803F44033B3F5003F08D1FB6823F44033FB60FB6843F44033FB6007E05B
S32D0000EC68FB6823F44033FB60FB6843F40033FB604E4B5B684D4A9BB253607B68DB68002B2AD0FB6803F4403303
S32D0000EC90B3F5403F03D0FB6843F40013FB607B681B7A002B03D0FB6843F01003FB607B68DB68012B03D9FB6849
S32D0000ECB843F02003FB607B68DB68B3F1FF3F0BD03A4B5A687B68DB681B04384913434B60FB6843F00203FB6096
S32D0000ECE0344B00221A60334AFB68D3603248FFF753FF0346012B14BF01230023DBB2002B09D02C4B1B6B2B4A84
S32D0000ED0843F4702343F001031363012348E0274B1B6B03F08003002B14BF01230023DBB2002B07D0214B1B6BE6
S32D0000ED30204A43F001131363012335E01D4B1B6B03F48033002B14BF01230023DBB2002B08D0184B1B6B174A9E
S32D0000ED5843F0011313634FF0FF3321E0FB6803F44033002B15D0114B1A697B681A61FB6803F44033B3F5803F10
S32D0000ED800BD10C4B5A697B685A610A4B9A697B689A61084BDA697B68DA61064B1B6B054A43F0010313630023F1
S32D0000EDA818461037BD4680BD3CB4010000100B4001000E0080B592B000AF7860396000237B643B68BB63994BBF
S32D0000EDD07B637B6B002B02D140F601235FE3964B3B633B6B002B02D140F60B2357E33B6B1B68FB62FB6A002BE0
S32D0000EDF802D140F60B234EE37B6841F20932934200F23F837B68B3F5985F08D87B68032B00F01A837B68092B94
S32D0000EE2000F0098331E37B68A3F59853013B082B00F22B8301A252F823F000BF61EE00004DF10000A9F30000D7
S32D0000EE4863F10000A1F10000C7F200000FF3000051F200006BF200007649786BFFF7EEFD78647B6C002B40F0BA
S32D0000EE701083002387F84330002387F82B30002387F82A30002387F82930002387F84230002387F828300023A7
S32D0000EE983B7200237B720023FB6000233B7400237B6107F108031846FFF788FE0346002B14BF01230023DBB248
S32D0000EEC0002B02D001237B64E8E240F24C4000F0BFFE08233B7200237B724FF4D573FB6000233B7400237B6150
S32D0000EEE807F108031846FFF769FEF863FB6B002B09D1BA69FB689A4202D001237B64C9E2012387F8423001235D
S32D0000EF1087F8283097F82830002B00F0A58037233B7200237B720023FB6000233B7400237B6107F1080318460E
S32D0000EF38FFF744FEF863FB6B002B02D001237B64A8E269233B7200237B720023FB6000233B7400237B6107F198
S32D0000EF6008031846FFF72EFE0346002B14BF01230023DBB2002B02D001237B648EE2BB6903F44013002B6FD095
S32D0000EF880023FB630A2000F05FFEFB6B0133FB6337233B7200237B720023FB6000233B7400237B6107F1080302
S32D0000EFB01846FFF707FE0346002B14BF01230023DBB2002B02D001237B6428E069233B7200237B7297F842306D
S32D0000EFD8002B02D0184BFB6002E04FF44013FB6000233B7400237B6107F108031846FFF7E5FD0346002B14BF2C
S32D0000F00001230023DBB2002B02D001237B6406E0BB69002B03DBFB6B632B00D8B6E77B6C002B40F03882FB6B30
S32D0000F028632B0BD9002387F8423019E02C1700203019002030B4010000003040012387F8433097F84230002BD8
S32D0000F0500AD0002387F84230BB6903F08043002B02D0012387F8423097F82A30002B02D07B6B07221A6097F8BA
S32D0000F0782930002B02D07B6B08221A6097F82B30002B02D07B6B04221A6097F84330002B09D07B6B02221A6093
S32D0000F0A097F84230002B02D07B6B03221A6097F82B30002B0DD097F84330002B09D07B6B05221A6097F842303F
S32D0000F0C8002B02D07B6B06221A60924B00221A60904B00225A608F4B00229A608D4B0022DA608C4B00221A61C7
S32D0000F0F08A4B00225A61FB6A9A68FB6A5B6819461046FFF72BFC854B40F243421A60834B40F243425A60814BD3
S32D0000F1184FF488629A607F4B40F24342DA607D4B40F243421A617B4B40F243425A617A4B03F580531B6B784ADD
S32D0000F14043F4003302F580521363A7E1B86BFFF739FDF863FB6B002B00F09F8102237B649BE1BB6B002B02D181
S32D0000F1680C237B6496E16D4BDB6A1B0A5B0003F4FF73FB63694BDB6A1B0903F00F035A1CFB6B02FB03F3FB6361
S32D0000F190FB6A9A68FB6BB2FBF3F2BB6B1A607DE1BB6B002B02D10C237B6477E1BB6B1B68002B02D10C237B64B5
S32D0000F1B870E1FFF7DBFC0346002B0CBF01230023DBB2002B3CD0534B00221A60514B00225A60504B00229A6058
S32D0000F1E04E4B0022DA604D4B00221A614B4B00225A61FB6A9A68BB6B1B6819461046FFF7ADFB464B40F24342B9
S32D0000F2081A60444B40F243425A60424B4FF488629A60404B40F24342DA603E4B40F243421A613C4B40F2434235
S32D0000F2305A613B4B03F580531B6B394A43F4003302F58052136329E140F60A237B6425E1BB6B002B02D10C234D
S32D0000F2587B641FE1314B5B68C3F30C02BB6B1A6018E1BB6B002B02D10C237B6412E1FFF77DFC0346002B0CBF3A
S32D0000F28001230023DBB2002B19D0BB6B1B68B3F5805F02D30C237B6400E1224B5B68214A23F4FF5323F01F034B
S32D0000F2A853601E4B5A68BB6B1B68C3F30C031B4913434B60EEE040F60A237B64EAE0BB6B002B02D10C237B647B
S32D0000F2D0E4E0144B9B6A5B0803F00303FB63FB6B002B03D1BB6B00221A60D7E0FB6B012B03D1BB6B01221A6027
S32D0000F2F8D0E0FB6B102B03D1BB6B02221A60C9E005237B64C6E0BB6B002B09D10C237B64C0E000BF00D00440FD
S32D0000F3200070044000100B40FFF724FC0346002B0CBF01230023DBB2002B31D0BB6B1B68002B0AD1584B9B6A04
S32D0000F348574A23F006039362554B554A9B6A9362A0E0BB6B1B68012B0CD1514B9B6A504A23F0060393624E4B95
S32D0000F3709B6A4D4A43F0020393628FE0BB6B1B68022B0AD1484B9B6A474A23F006039362454B454A9B6A936233
S32D0000F39880E005237B647DE040F60A237B6479E0BB6B002B02D10C237B6473E03C4BDB6A3B4A43F00063D36247
S32D0000F3C0394BDB6A03F00063002B14BF01230023DBB2002B00D0F3E7334B1B6B03F08003002B14BF012300239A
S32D0000F3E8DBB2002B08D02E4B1B6B2D4A43F0800313637B6B00221A60294B5B6A03F48033002B14BF012300231B
S32D0000F410DBB2002B07D07B6B1B68002B06D17B6B01221A6002E07B6B00221A607B6B1A68BB6B1A6032E0BB6BAD
S32D0000F4381C221A60BB6B043304221A60BB6B08334FF41E721A6025E00220FFF7A1FB144B1B6B03F4E003002BA0
S32D0000F46014BF01230023DBB2002B07D00E4B1B6B0D4A43F4E003136304237B640A4B1B6B094A43F032031363FD
S32D0000F48808E040F609237B6404E000BF02E000BF00E000BF7B6C18464837BD4680BD00BF00100B4080B489B0BF
S32D0000F4B000AF786039607B687B61364B3B613B69002B01D100235FE03B691B68022B0BD03B691B68032B07D0D4
S32D0000F4D83B691B68072B03D03B691B68082B0BD12B4B5B6A03F00403002B14BF01230023DBB2002B00D0F3E7C8
S32D0000F5003B68FB61FB69002B3DD0FB69B3F5007F28BF4FF40073FB60FB6803339B08BB61BB69002B2AD01C4BB7
S32D0000F5281B6B03F4E003002B14BF01230023DBB2002B09D0164B1B6B154A43F4E00343F02003136300231BE035
S32D0000F550114B5B6A03F40063002B0CBF01230023DBB2002B00D0F3E70B497B691A1D7A610A6A1A60BB69013BDB
S32D0000F578BB61D1E7FA69FB68D31AFB61BEE7012318462437BD4680BC704700BF2C17002000100B4080B58EB01A
S32D0000F5A000AFB9607A601A460346FB731346BB73414B7B63FB7B002B02D1BB7B002B01D1042375E03D4B1B7855
S32D0000F5C8DBB203F00103002B14BF01230023DBB2002B01D0032367E0BB68002B01D1002362E07B6B1B7B002B2A
S32D0000F5F002D17B685B027B60BB7B012B28D111233B7500237B757B68BB6101233B77BB7B3B6207F11403194697
S32D0000F61841F20230FFF7CEFB0346002B0CBF01230023DBB2002B38D04FF40071B868FFF739FF0346002B14BF11
S32D0000F64001230023DBB2002B2BD00023BB7328E012233B7500237B757B68BB6101233B77BB7B3B6207F114039A
S32D0000F668194641F20230FFF7A5FB0346002B0CBF01230023DBB2002B0FD0BB7B5B021946B868FFF70FFF03469E
S32D0000F690002B14BF01230023DBB2002B01D00023BB73BB7B002B01D0012300E0002300BF18463837BD4680BD08
S32D0000F6B8181700200000002080B487B000AF786039607B68FB603B687B617B69002B3DD07B69B3F5007F28BF5F
S32D0000F6E04FF400733B617A693B69D31A7B613B6903339B083B613B69002BEAD0184B1B6B03F4E003002B14BFF7
S32D0000F70801230023DBB2002B0AD0134B1B6B124A43F4E00343F0100313634FF0FF3316E00D4B5B6A03F4806386
S32D0000F730002B0CBF01230023DBB2002B00D0F3E7FB681A1DFA60064A1B6813623B69013B3B61D0E7012318461B
S32D0000F7581C37BD4680BC704700100B4080B58EB000AFB9607A601A460346FB731346BB735D4B7B63FB7B002B05
S32D0000F78002D1BB7B002B01D10423ADE0594B1B78DBB203F00103002B14BF01230023DBB2002B01D003239FE073
S32D0000F7A8524B1B78DBB203F00403002B14BF01230023DBB2002B01D0022391E0BB68002B01D100238CE07B6B83
S32D0000F7D01B7B002B02D17B685B027B60BB7B012B28D118233B7500237B757B68BB6100233B77BB7B3B6207F164
S32D0000F7F81403194641F20230FFF7DCFA0346002B0CBF01230023DBB2002B38D04FF40071B868FFF751FF034693
S32D0000F820002B14BF01230023DBB2002B2BD00023BB7328E019233B7500237B757B68BB6100233B77BB7B3B62C3
S32D0000F84807F11403194641F20230FFF7B3FA0346002B0CBF01230023DBB2002B0FD0BB7B5B021946B868FFF7F7
S32D0000F87027FF0346002B14BF01230023DBB2002B01D00023BB730D233B7500237B757B6B1B69BB6100233B778E
S32D0000F89800233B6207F11403194641F20230FFF789FA0346002B14BF01230023DBB2002B01D0012314E07A6A23
S32D0000F8C00D4B1340002B01D001230DE07B6A03F4F853B3F5106F00D0D5E7BB7B002B01D0012300E0002300BF70
S32D0000F8E818463837BD4680BD18170020000000200880D9FF80B58CB000AF03463A60FB710B46BB713A4BBB6288
S32D0000F910FB79002B01D0042369E0012387F82F30364B1B78DBB203F00103002B14BF01230023DBB2002B01D081
S32D0000F938032358E0BB79032B50D801A252F823F059F9000061F9000071F9000081F90000002387F82F3044E004
S32D0000F960BB6A9A683B681A60002387F82F303CE03B684FF400721A80002387F82F3034E009233B7200237B7228
S32D0000F988BB6A1B69FB6000233B7400237B6107F10803194641F20230FFF70CFA0346002B14BF01230023DBB29E
S32D0000F9B0002B01D001231AE07B6A03F44003002B0CD13B6A9B0C03F07F035A1C7B6A1B0A03F00303013B9A4098
S32D0000F9D83B681A60002387F82F3002E0042387F82F3097F82F3018463037BD4680BD00BF1817002000000020DB
S32D0000FA0080B483B000AF0346FB71FB79002B01D0012302E0034B1B78DBB218460C37BD4680BC70470000002072
S32D0000FA2880B483B000AF7860164B03F580539B6B144A43F0010302F580529363124A7B689360114B05225A60CD
S32D0000FA500F4B1B680E4A43F0010313600C4B1B6803F08003002B0CBF01230023DBB2002B00D0F3E7064B1B68E6
S32D0000FA78054A23F00103136000BF0C37BD4680BC704700BF007004400000044080B582B000AF786039607B686E
S32D0000FAA0012B07D13B684FF6FF72934202D1034800F00EF800BF0837BD4680BD3819002080B500AF4FF6FF71AA
S32D0000FAC80120FFF7E3FF80BD80B483B000AF78607B6800221A707B6818460C37BD4680BC7047000080B582B07C
S32D0000FAF000AF78607B681B7883F00103DBB2002B21D0134B03F580531A464FF400639362104B4FF440721A62DB
S32D0000FB180E4B4FF440725A620D4B1B68DA0F13445B104FF4614219460A48FEF7FDFB642000F08AF87B680122AF
S32D0000FB401A70012300E0002318460837BD4680BD0070044000D004403C19002000B00E4080B582B000AF7860E0
S32D0000FB68084611461A460346FB700B46BB7013467B707F210E48FEF7AAFC08210C48FEF7A6FCFB7819460A482D
S32D0000FB90FEF7A1FCBB7819460748FEF79CFC7B7819460548FEF797FCFF210348FEF793FC00BF0837BD4680BDF3
S32D0000FBB800B00E4080B487B000AFF860B9607A60FB681F4AA2FB03239B09BA6813447B61FB681B4AA2FB0312BA
S32D0000FBE092094FF47A7101FB02F29B1AFB60FB68DB03154AA2FB03239B097A6813443B613B69DB0B7A6913448E
S32D0000FC087B613B69C3F30E033B610E4B1B687A699A4209D80B4B1B687A699A4206D1094B5B683A699A4201D990
S32D0000FC30012300E00023002B00D0EAE700BF1C37BD4680BC704700BFD34D621000D0034080B584B000AF786057
S32D0000FC58074B1B68FB60064B5B68BB607B68BA68F9681846FFF7A6FF00BF1037BD4680BD00D0034080B584B0FE
S32D0000FC8000AF78600B4B1B68FB600A4B5B68BB600949786804F082FE0346184605F06AF80346BA68F96818469A
S32D0000FCA8FFF788FF00BF1037BD4680BD00D0034000007A4480B584B000AFC7E900010E4B1B68FB600C4B5B6880
S32D0000FCD0BB604FF000020B4BD7E9000104F008FA02460B461046194604F0DAFC0346BA68F9681846FFF762FF04
S32D0000FCF800BF1037BD4680BD00D0034000408F4080B584B000AF134B1B68FB60114B5B68BB60F86804F06EF92D
S32D0000FD2002460B46C7E90023B86804F067F94FF000020B4B04F006FB02460B46D7E9000104F020F802460B464A
S32D0000FD48C7E90023D7E90023104619461037BD4680BD00BF00D003400000E04080B483B000AF0B4B1B684FF477
S32D0000FD707A7202FB03F37B60074B5B684FF47A7202FB03F3DB0B7A6813447B607B6818460C37BD4680BC704700
S32D0000FD9800D0034080B584B000AF78600B46FB700B23FB73FA7BFB781946786800F094F87B6818461037BD46B4
S32D0000FDC080BD000080B485B000AF78607B68103B002B00DA1F335B11FB60FB68022B53D0FB68022B75DCFB68A5
S32D0000FDE8002B03D0FB68012B25D06EE0394BD3F880217B68103B594203F01F0301F01F0158BF4B42012101FA7D
S32D0000FE1003F332491343C1F88031304B1A687B68103B594203F01F0301F01F0158BF4B42012101FA03F329497E
S32D0000FE3813430B6049E0274BD3F884217B68103B594203F01F0301F01F0158BF4B42012101FA03F31F4913436C
S32D0000FE60C1F884311D4B5A687B68103B594203F01F0301F01F0158BF4B42012101FA03F3164913434B6024E0D2
S32D0000FE88144BD3F888217B68103B594203F01F0301F01F0158BF4B42012101FA03F30D491343C1F888310B4B5F
S32D0000FEB09A687B68103B594203F01F0301F01F0158BF4B42012101FA03F3044913438B6000BF00BF1437BD4622
S32D0000FED880BC704700E100E080B584B000AF78600B46FB701346BB707B68FA781A70BB78FB737B681B781A46C2
S32D0000FF00574B9B5C042B00F2A68001A252F823F025FF000071FF0000BDFF00005500010009000100FB7B1B04AE
S32D0000FF2803F470234D497A68127810464C4A52F8202043F4897343F0010341F82230494B5A697B681B78194688
S32D0000FF50454B53F8213003F01F03012101FA03F3DB43424913404B616720FFF72BFF72E0FB7B1B0403F470236F
S32D0000FF783D497A6812781046394A52F8202043F4897343F0010341F82230384B5A697B681B781946324B53F82E
S32D0000FFA0213003F01F03012101FA03F3DB43314913404B616820FFF705FF4CE0FB7B1B0403F470232C497A68FF
S32D0000FFC812781046264A52F8202043F4897343F0010341F82230274B5A697B681B7819461F4B53F8213003F039
S32D0000FFF01F03012101FA03F3DB43204913404B616920FFF7DFFE26E0FB7B1B0403F470231B497A681278104681
S32D00010018134A52F8202043F4897343F0010341F82230164B5A697B681B7819460C4B53F8213003F01F030121BA
S32D0001004001FA03F3DB430F4913404B616B20FFF7B9FE00E000BF00BF1037BD4680BD00BF3CB501000090044089
S32D0001006880B5010000F00F4000A0044040F00F4000B0044080F00F4000D0044000F10F40B0B48BB000AF224BCF
S32D000100903C1D1D460FCD0FC495E80F0084E80F0000237B627B6A072B30DC1C4BD3F8A0207B6A9B0028333B4460
S32D000100B853F8243C012101FA03F31340002B14BF01230023DBB2002B18D0134A7B6A52F823305A1C10497B6A90
S32D000100E041F823200D4BD3F8A0207B6A9B0028333B4453F8243C012101FA03F307491340C1F8A0307B6A013335
S32D000101087B62CBE700BF2C37BD46B0BC704700BF84B6010000A0044068190020B0B489B000AF224B3C1D1D46FD
S32D000101300FCD0FC495E8030084E803000023FB61FB69052B30DC1C4BD3F8A020FB699B0020333B4453F81C3C7D
S32D00010158012101FA03F31340002B14BF01230023DBB2002B18D0FB690833124A52F823200132104941F823209D
S32D000101800D4BD3F8A020FB699B0020333B4453F81C3C012101FA03F307491340C1F8A030FB690133FB61CBE714
S32D000101A800BF2437BD46B0BC704700BFA4B6010000B0044068190020B0B48DB000AF234B3C461D460FCD0FC4E7
S32D000101D00FCD0FC495E8070084E807000023FB62FB6A0A2B30DC1C4BD3F8A020FB6A9B0030333B4453F8303CA9
S32D000101F8012101FA03F31340002B14BF01230023DBB2002B18D0FB6A0E33124A52F823200132104941F82320F6
S32D000102200D4BD3F8A020FB6A9B0030333B4453F8303C012101FA03F307491340C1F8A030FB6A0133FB62CBE74C
S32D0001024800BF3437BD46B0BC704700BFBCB601000090044068190020B0B487B000AF214B3C461D460FCD0FC446
S32D000102702B68236000237B617B69042B30DC1C4BD3F8A0207B699B0018333B4453F8183C012101FA03F31340EB
S32D00010298002B14BF01230023DBB2002B18D07B691933124A52F823200132104941F823200D4BD3F8A0207B696A
S32D000102C09B0018333B4453F8183C012101FA03F307491340C1F8A0307B6901337B61CBE700BF1C37BD46B0BCA5
S32D000102E8704700BFE8B6010000D004406819002080B483B000AF78607B681B781A46044B53F8223018460C37CC
S32D00010310BD4680BC704700BF6819002080B483B000AF78607B681B781946044B002243F8212000BF0C37BD46B3
S32D0001033880BC70476819002080B483B000AF78600B46FB707B68FA781A707B6818460C37BD4680BC70470000FF
S32D0001036080B586B000AF78607B681B781A463E4B53F822303B617B681B781A463B4B9B5CFB733B69DBB203F0FF
S32D000103881F03DAB2384B1A723B69DBB203F01F03DAB2354B5A72354B1022C3F88820FB7B002B13D130493248DE
S32D000103B000F05AFA304B1B6803F08003802B14BF01230023DBB2002B00D0F3E72A4B1B697B6112E02649294898
S32D000103D800F046FA274B1B6803F08003802B14BF01230023DBB2002B00D0F3E7214B1B697B611E4BD3F888317B
S32D000104001C4A43F01003C2F888311A4B9B68194A43F0100393607B699BB2184603F0EEFD0DA3D3E9002303F0BB
S32D0001042863FE02460B46104619460BA3D3E9002303F084FF02460B461046194604F04CF90346BB60BB68184687
S32D000104501837BD4680BD00BFA4703D0AD7A30A4000000000E0FFEF4000B601005CB501004819002000E100E0F7
S32D0001047800B0034000B00B4080B586B000AF78607B681B781A46234B53F822303B617B681B781A46204B9B5CC0
S32D000104A0FB733B69DBB203F01F03DAB21D4B1A723B69DBB203F01F03DAB21A4B5A72FB7B002B13D117491848B1
S32D000104C800F0CEF9164B1B6803F08003802B14BF01230023DBB2002B00D0F3E7104B1B697B6112E00D490F4873
S32D000104F000F0BAF90D4B1B6803F08003802B14BF01230023DBB2002B00D0F3E7074B1B697B617B69184618377F
S32D00010518BD4680BD00B601005CB501005819002000B0034000B00B4098B500AF204B5C221A701F4B10225A7057
S32D000105401D4B41F234225A801B4B45F278629A80194B10229A71184B0722DA71164B4FF4C022DA60144B1F2258
S32D000105681A72134B1F225A721149124800F078F90F49114800F074F90F4800F0D2F80D4800F0CFF80A490C4886
S32D0001059000F06AF90849094800F066F9094A064B14460FCB84E80F00064B5C221A70054B0422DA7100BF98BD77
S32D000105B84819002000B0034000B00B405819002080B500AF064B1B680133054A136000F03DF8044B0122C3F814
S32D000105E00C2100BF80BD00BFEC1900200070034080B500AF0C4B01221A600C4800F01AF8094B0322C3F80821A1
S32D00010608094BD3F88831084A43F01003C2F88831054B9B68044A43F01003936000BF80BD00700340A086010030
S32D0001063000E100E080B483B000AF7860044A7B68C2F8003100BF0C37BD4680BC704700BF0070034080B584B0FD
S32D0001065800AF174B1B68FB60FB68002B24D0FB685B78FB71FB689B68184600F023F80346BB71BB79002B13D0DA
S32D00010680FB685B68012B0FDDFB689B681B69BB60BB68002B08D0BB685B685A1CBB685A60BB681B69BB60F3E70D
S32D000106A8FB68DB68FB60D7E700BF1037BD4680BDE819002080B584B000AF78607868FFF7DBFEF8607B689B691F
S32D000106D05B78FB72FB7A002B0FD17B68DB68FA689A420ADD7B689B6901225A707B685B685A1C7B685A6001233F
S32D000106F813E0FB7A012B0FD17B689B68FA689A420ADA7B689B6900225A707B685B685A1C7B685A60012300E0C7
S32D00010720002318461037BD4680BD80B485B000AF78607B681B6A23F040027B681A627B685B6A23F00B027B68EB
S32D000107485A627B685B6A43F007027B685A627B685B6A43F080027B685A627B681B6803F08003002B0CBF012351
S32D000107700023DBB2002B00D0F3E77B685B6A03F04003402B0CBF01230023DBB2002B01D0012364E00023FB81EA
S32D000107987B68DB6CFB817B689B6C9AB2FB891344FB817B685B6C9AB2FB891344FB817B681B6C9AB2FB89134421
S32D000107C0FB817B68DB6B9AB2FB891344FB817B689B6B9AB2FB891344FB81FB895B08FB81FB896FEA43436FEA17
S32D000107E85343FB81FA897B68DA620023FB817B68DB6EFB817B689B6E9AB2FB891344FB817B685B6E9AB2FB89DC
S32D000108101344FB817B681B6E9AB2FB891344FB817B68DB6D9AB2FB891344FB817B689B6D9AB2FB891344FB817B
S32D00010838FB895B08FB81FB896FEA43436FEA5343FB81FA897B681A637B685B6A23F080027B685A620023184620
S32D000108601437BD4680BC704780B483B000AF786039603B681B781A467B689A603B685B781A467B68DA603B6898
S32D000108885B881A467B689A613B689B881A467B68DA613B689B791A467B681A623B68DB791A467B685A623B68CD
S32D000108B0DA687B681A653B681B7A1A467B681A603B685B7A1A467B685A6000BF0C37BD4680BC704780B483B0AC
S32D000108D800AF78607B6818460C37BD4680BC704780B582B000AF786039607B68012B07D13B684FF6FF72934254
S32D0001090002D10348FFF7E6FF00BF0837BD4680BDF019002080B500AF4FF6FF710120FFF7E3FF80BD80B582B032
S32D0001092800AF7860B84B4FF48072DA60B74B4FF480729A64B54B4FF480721A64B34B4FF480725A64B14B4FF48F
S32D000109508072DA60B04B5B69AF4A43F008035361AE4B5B69AD4A43F480235361AB4B5B69AA4A43F48033536114
S32D00010978A84B5B69A74A43F400335361A54B1B68A44A43F008031360A24B5B69A14A43F0080353619E4B1B687E
S32D000109A09D4A43F0080313609A4B4FF480725A62984B4FF480721A62954B4FF480721A61934B4FF480725A61C8
S32D000109C8914B4FF480729A618F4B4FF48072DA618D4B4FF480721A638B4B4FF480725A63894B4FF480729A6352
S32D000109F0874B4FF48072DA63854B4FF480721A64834B4FF480725A64814B4FF480729A647F4B4FF48072DA6414
S32D00010A18814B4FF480721A607F4B4FF480729A607D4B4FF48072DA607B4B4FF480721A61784B5B69774A43F40F
S32D00010A4040735361744B5B69734A43F47F2343F0F0035361734B5B69724A43F01D035361E221786800F0A6FD72
S32D00010A681D21786800F048FE0221786800F044FE0421786800F040FEE021786800F096FD0121786800F038FE17
S32D00010A906420FFF7DDF8E021786800F08BFD0321786800F02DFE0121786800F083FD0120FFF7CEF8E62178683A
S32D00010AB800F07CFD0121786800F01EFEA021786800F01AFEFF21786800F016FEB021786800F06CFD1C217868C4
S32D00010AE000F00EFE0F21786800F00AFE0121786800F006FE3F21786800F002FE0021786800F0FEFDEF217868E1
S32D00010B0800F0FAFD0021786800F0F6FDB421786800F04CFD0121786800F0EEFD9921786800F0EAFD00217868B6
S32D00010B3000F0E6FD4521786800F0E2FD0221786800F0DEFD0021786800F0DAFD0021786800F0D6FD0021786853
S32D00010B5800F0D2FDB621786800F028FD0121786800F0CAFD0921786800F0C6FD0021786800F0C2FD0E217868AE
S32D00010B8000F0BEFD0221786800F0BAFD0021786800F0B6FD0021786800F0B2FDBA21786800F008FD0F217868ED
S32D00010BA800F0AAFD6420FFF74FF83A21786800F0FDFC6021786800F09FFD2A21786800F0F5FC0021786800F0B8
S32D00010BD097FD0021786800F093FD0121786800F08FFD3F21786800F08BFD2B21786800F0E1FC0021786800F0C1
S32D00010BF883FD0021786800F07FFD0021786800F07BFDEF2178680BE000B0044000A0044080F00F4040F00F4087
S32D00010C2000C00440C0F00F4000F06AFD3621786800F0C0FC0021786800F062FDF021786800F0B8FC042178687E
S32D00010C4800F05AFDB821786800F0B0FC0F21786800F052FD0121786800F04EFD314B1B68304A43F0080313602B
S32D00010C706420FEF7EDFF3621786800F09BFC0021786800F03DFDF021786800F093FC0421786800F035FD01214E
S32D00010C98786800F0BCF91E226F21786800F082F8AF225621786800F0DBF80021786800F00AFA012301221C4902
S32D00010CC0786800F02BFA2921786800F073FC6420FEF7BEFFBE21786800F06CFC0E21786800F00EFDF02178683F
S32D00010CE800F00AFD0121786800F006FD0021786800F002FD0021786800F0FEFC0F21786800F0FAFC786800F050
S32D00010D1028FA0121786800F0DAF90021786800F0AFF900BF0837BD4680BD00BF40F00F40FCB6010080B582B09E
S32D00010D3800AF78607B680022DA617B6801221A627B680E225A607B681A229A607B6800225A617B6800229A619D
S32D00010D607B684FF4A072DA607B68F0221A617B6800221A70786801F0F7F97B6818460837BD4680BD80B582B00B
S32D00010D8800AF7860064B1B78002B05D1044B01221A707868FFF7C2FD00BF0837BD4680BD381A002080B58AB020
S32D00010DB002AFF860B9607A607E23009362237A68B968F86800F08BFE40F24E733B610023FB61FA693B699A4292
S32D00010DD840DA0023BB61214AFB6913441B781A46BB69934232DAFB6901331C4AD35C002B06D1FF23FB75FF2392
S32D00010E00BB75FF237B7512E0FB690133154AD35C012B06D1D423FB750023BB7526237B7505E0B523FB75BA2369
S32D00010E28BB75B0237B757B7DBA7DF97DF86800F0C9F80246FB68DA61F86801F091F9F86801F0CAF8BB690133C6
S32D00010E50BB61C4E7FB690233FB61BAE700BF2037BD4680BD0400002080B58AB002AFF860B9607A602723009354
S32D00010E7895237A68B968F86800F02DFE40F2E6333B610023FB61FA693B699A4240DA0023BB61214AFB6913444D
S32D00010EA01B781A46BB69934232DAFB6901331C4AD35C002B06D1FF23FB75FF23BB75FF237B7512E0FB6901337C
S32D00010EC8154AD35C012B06D10023FB750023BB7500237B7505E0D423FB750023BB7526237B757B7DBA7DF97DF4
S32D00010EF0F86800F06BF80246FB68DA61F86801F033F9F86801F06CF8BB690133BB61C4E7FB690233FB61BAE753
S32D00010F1800BF2037BD4680BD5407002080B485B000AF78600B46FB70FB78062B29D801A252F823F0610F010017
S32D00010F40590F0100670F01006F0F0100770F01007D0F0100850F01006FF07F43FB6014E00023FB6011E04FF458
S32D00010F687F03FB600DE04FF47F43FB6009E0FF23FB6006E04FF41903FB6002E0044BFB6000BFFB6818461437D3
S32D00010F90BD4680BC704700BF9999990080B584B000AF786039603B681B0CFB733B681B0ABB733B687B737B7B74
S32D00010FB8BA7BF97B786800F005F8034618461037BD4680BD80B487B000AF7860084611461A460346FB700B466A
S32D00010FE0BB7013467B70FB789B08DBB27B61BB789B08DBB23B617B789B08DBB2FB607B691A033B699B011A43D9
S32D00011008FB68134318461C37BD4680BC704780B582B000AF78600B46FB70FB7819467868FFF77CFF03461946E4
S32D00011030786800F004F800BF0837BD4680BD80B582B000AF7860396039687868FFF7A6FF02467B681A6278685D
S32D0001105801F086F8786800F0E7FB00BF0837BD4680BD80B582B000AF7860786800F0DCFB00BF0837BD4680BD37
S32D0001108080B582B000AF78600B46FB70FB7819467868FFF747FF03461946786800F004F800BF0837BD4680BDF7
S32D000110A880B582B000AF7860396039687868FFF771FF02467B681A62786801F051F800BF0837BD4680BD80B577
S32D000110D082B000AF78600B46FB70FB7819467868FFF720FF03461946786800F004F800BF0837BD4680BD80B5CE
S32D000110F882B000AF7860396039687868FFF74AFF02467B68DA61786801F02AF800BF0837BD4680BD80B586B0B5
S32D0001112000AFF860B9607A603B6000237B617B69BA6813441B78002B0FD07B69BA6813441B783A687968F8683F
S32D0001114800F008FE7B680C337B607B6901337B61E9E700BF1837BD4680BD80B582B000AF7860FDF791F8672180
S32D000111700120FCF7FCFF00210220FCF7F8FFA0210320FCF7F4FF50210420FCF7F0FF20210520FCF7ECFF20214E
S32D000111980620FCF7E8FF77210720FCF7E4FF00210820FCF7E0FF00210920FCF7DCFF00210A20FCF7D8FF042126
S32D000111C00B20FCF7D4FF7B684FF0FF32DA637B684FF0FF321A6400BF0837BD4680BD000080B586B000AFF860FE
S32D000111E8B9607A600020FCF7E0FF0346FB75FB7D03F00203002B00F0CE80FCF7F3FFE020FCF7A4FF0220FEF7CF
S32D000112101FFDFCF7F9FF0120FEF71AFDFCF7E6FFA520FCF797FF0120FEF712FDFCF7B9FF03469BB21B02BB8295
S32D00011238FCF7B3FF03469AB2BB8A1343BB82FCF7ACFF03469BB21B027B82FCF7A6FF03469AB27B8A13437B82A2
S32D00011260BB8A1B09BB827B8A1B097B82FCF7CCFFFB68DB6BB3F1FF3F34D1FB681B6CB3F1FF3F2FD1BA8AFB68D2
S32D00011288DA637A8AFB681A647B8AC3F57F630F337B82BB8A184602F0BDFE49A3D3E9002302F022FF02460B4670
S32D000112B01046194603F014FA0246BB681A607B8A184602F0ABFE42A3D3E9002302F010FF02460B461046194663
S32D000112D803F002FA02467B681A605AE0FB68DA6BBB8AD31A1946F86800F074F80346632B0CDCFB681A6C7B8A77
S32D00011300D31A1946F86800F069F80346632B01DC012300E00023002B2FD0BA8AFB68DA637A8AFB681A647B8AEE
S32D00011328C3F57F630F337B82BB8A184602F072FE23A3D3E9002302F0D7FE02460B461046194603F0C9F9024601
S32D00011350BB681A607B8A184602F060FE1CA3D3E9002302F0C5FE02460B461046194603F0B7F902467B681A6035
S32D000113780FE0BB68164A1A607B68154A1A60FB684FF0FF32DA63FB684FF0FF321A64002310E001230EE0BB68F5
S32D000113A00D4A1A607B680C4A1A60FB684FF0FF32DA63FB684FF0FF321A64002318461837BD4680BDAFF3008007
S32D000113C8144001144001B43F1EE0011EE001AE3F000080BF80B483B000AF786039603B68002B02DA3B685B42BE
S32D000113F03B603B6818460C37BD4680BC704780B584B000AF786039600023FB60786800F0D2FAFB683A681344FA
S32D000114181B78002B12D07B6859697B689869FB683A6813441B780246786800F079FC786800F0D1FAFB680133CE
S32D00011440FB60E6E700BF1037BD4680BD80B592B000AF786039604FF00001386803F050FC0346002B1FD0386856
S32D0001146803F05EFC03467B64786C03F03FFA03461946386803F084F903461F49184603F089FA0346184603F0F9
S32D000114904BFC03463B6407F10C003B6C7A6C194904F0F6FC22E03B6883F000433B60386803F03AFC03467B643E
S32D000114B8786C03F01BFA03461946386803F060F903460D49184603F065FA0346184603F027FC03463B6407F199
S32D000114E00C003B6C7A6C084904F0D2FC07F10C0319467868FFF783FF00BF4837BD4680BD00007A4418B7010067
S32D000115080CB7010080B582B000AF78600B46FB70786800F04CFA7B6859697B689A69FB78786800F0FDFB78688A
S32D0001153000F055FA00BF0837BD4680BD80B582B000AF78603960786800F035FA39687868FFF755FF786800F0EE
S32D0001155819FA00BF0837BD4680BD80B582B000AF78603960786800F022FA39687868FFF769FF786800F006FAF1
S32D0001158000BF0837BD4680BD80B582B000AF78600B46FB70786800F00EFAFB7819467868FFF7B4FF786800F051
S32D000115A8F1F900BF0837BD4680BD000080B483B000AF78600B46FB704D4B1B684C4A23F0080313604B4B1B68E7
S32D000115D04A4A23F480231360484B1B68474A43F480331360454B1B68444A23F440731360414B1B68404A23F499
S32D000115F8435323F0300313603E4B1A68FB785B0203F400733B4913430B603A4B1A68FB785B101B0203F48073FF
S32D00011620364913430B60344B1A68FB789B101B0103F01003304913430B602F4B1A68FB78DB105B0103F0200314
S32D000116482B4913430B602A4B1A68FB781B119B0103F04003264913430B60254B1A68FB785B11DB01DBB2224901
S32D0001167013430B60204B1A68FB789B111B0303F480531D4913430B601B4B1A6897F90330DB115BB25B0303F476
S32D000116980053174913430B60164B1B68154A23F400331360134B1B68124A43F4003313600F4B1B680E4A43F02D
S32D000116C0080313600D4B1B680C4A43F440731360094B1B68084A43F4435343F030031360064B1B68054A43F4C6
S32D000116E88023136000BF0C37BD4680BC704700BF80F00F4040F00F4080B483B000AF78600B46FB70464B1B680A
S32D00011710454A23F008031360444B1B68434A43F480331360414B1B68404A43F4802313603E4B1B683D4A23F4FE
S32D00011738407313603A4B1B68394A23F4435323F030031360374B1A68FB785B0203F40073344913430B60334B71
S32D000117601A68FB785B101B0203F480732F4913430B602D4B1A68FB789B101B0103F01003294913430B60284BDA
S32D000117881A68FB78DB105B0103F02003244913430B60234B1A68FB781B119B0103F040031F4913430B601E4BBF
S32D000117B01A68FB785B11DB01DBB21B4913430B60194B1A68FB789B111B0303F48053164913430B60144B1A682D
S32D000117D897F90330DB115BB25B0303F40053104913430B600F4B1B680E4A23F4003313600C4B1B680B4A43F40C
S32D0001180000331360084B1B68074A43F008031360064B1B68054A23F48023136000BF0C37BD4680BC704700BF34
S32D0001182880F00F4040F00F4080B586B000AF78607B6800225A617B6800229A617B681B6AFB60FB68FB72FB68AB
S32D000118501B0ABB72FB681B0CDBB203F003037B722A217868FFF7A6FE00217868FFF748FF00217868FFF744FFDD
S32D0001187801217868FFF740FF3F217868FFF73CFF2B217868FFF792FE00217868FFF734FF00217868FFF730FF97
S32D000118A000217868FFF72CFFEF217868FFF728FF2C217868FFF77EFE314B1B68304A23F4407313602F4B1B6898
S32D000118C82E4A23F47F2323F0F00313602C4B1B682B4A23F01D031360274B1A687B681B6B254913430B60254B36
S32D000118F01A687B685B6B234913430B60224B1A687B689B6B204913430B601E4B1B681D4A23F0080313601A4B26
S32D000119181B68194A43F48023136000237B617B69EF2B19D800233B613B69B3F5A07F0FD2114B1B68104A23F424
S32D00011940003313600E4B1B680D4A43F4003313603B6901333B61EBE77B6901337B61E2E7084B1B68074A43F065
S32D0001196808031360044B1B68034A23F48023136000BF1837BD4680BD40F00F4080F00F40C0F00F4080B483B094
S32D0001199000AF78607B689B69002B07DD7B685B695A1C7B685A617B6800229A6100BF0C37BD4680BC704780B5C3
S32D000119B882B000AF78607B685A697B685B689A4205DB7B6800225A617868FFF72DFF00BF0837BD4680BD80B50A
S32D000119E082B000AF78607B689B695A1C7B689A617B689A697B689B689A4205D17868FFF7C5FF7868FFF7D7FF20
S32D00011A0800BF0837BD4680BD80B586B002AFF860B9607A600123009301237A68B968F86800F059F8F86800F03B
S32D00011A30D7FA00BF1037BD4680BD80B485B000AF786039607B681B68FB603B681A687B681A603B68FA681A6025
S32D00011A5800BF1437BD4680BC704780B586B002AFF860B9607A603B60BA683B681A447B68009313467A68B96868
S32D00011A80F86800F0ABF8BA683B68D118BA683B68D0187A68BB691344009303467A68F86800F09CF8BA683B6825
S32D00011AA8D1187A68BB69D0187A68BB6913440093BB680246F86800F08DF87A68BB691A447B680093BB68B968EA
S32D00011AD0F86800F083F800BF1037BD4680BD80B588B000AFF860B9607A603B60FB681B78022B03D0FB681B78E8
S32D00011AF8032B11D17B68FB61BA6AFB691344013BBB61FB68DA68BB68D31A3B613B683A69D31A01337B610DE0B8
S32D00011B20BB68FB613A68FB691344013BBB617B687B61BA6A7B691344013B3B612A21F868FFF738FDFB691B0A0D
S32D00011B48DBB203F00F03DBB21946F868FFF7D4FDFB69DBB21946F868FFF7CEFDBB691B0ADBB203F00F03DBB2F0
S32D00011B701946F868FFF7C4FDBB69DBB21946F868FFF7BEFD2B21F868FFF714FD7B691B0ADBB203F00F03DBB2D4
S32D00011B981946F868FFF7B0FD7B69DBB21946F868FFF7AAFD3B691B0ADBB203F00F03DBB21946F868FFF7A0FDB5
S32D00011BC03B69DBB21946F868FFF79AFD2C21F868FFF7F0FC00BF2037BD4680BD90B58BB000AFF860B9607A601A
S32D00011BE83B603A68BB68D31A1946F868FFF7F2FBF861BA6B7B68D31A1946F868FFF7EAFBB861BA69FB699A427B
S32D00011C10CCBF01230023FB75FB7D002B0CD03A1D07F1080311461846FFF707FF3B4607F138011846FFF701FFD3
S32D00011C38BA683B689A420CDD3A4607F1080311461846FFF7F6FE3B1D07F138011846FFF7F0FE3A68BB689A4265
S32D00011C6006D1BB687A681946F868FFF7D1FE55E0BA6B7B68D31A184602F03CFE04463A68BB68D31A184602F0F5
S32D00011C8835FE03461946204602F038FF03463B617B68184602F02AFE03467B62BB683B623B683A6A9A4235DC69
S32D00011CB0FB7D002B14D0786A02F0C2F94FF00002184B02F05FF802460B461046194602F0BFFC03463A6A1946BB
S32D00011CD8F868FFF799FE13E0786A02F0ADF94FF000020E4B02F04AF802460B461046194602F0AAFC03461A4626
S32D00011D00396AF868FFF784FE3969786A02F03EFD03467B623B6A01333B62C5E72C37BD4690BD00BF0000E03FAF
S32D00011D2880B584B000AFF860B9607A60FB707A6813465B0013449B00991CBA6813461B011344DA1CFB78F868CA
S32D00011D5000F004F800BF1037BD4680BD80B58EB002AFF860B9607A60FB70FB780A2B06D1F868FFF720FEF86805
S32D00011D78FFF708FEF2E0FB787D2B02D8FB781F2B01D82023FB70FB78203BFB70112300930C237A68B968F868A3
S32D00011DA0FFF79DFEFA7813469B0013446F4AD35C3B75FA7813469B00134401336B4AD35C7B75FA7813469B0003
S32D00011DC813440233674AD35CBB75FA7813469B0013440333634AD35CFB75FA7813469B00134404335F4AD35C45
S32D00011DF03B760023BB62BB6A062B00F3A180F86800F050F9F86800F0B3F8002387F82F3000237B627B6A042BC0
S32D00011E1835DC07F114027B6A13441B7803F00103002B14BF01230023FB76FB7E002B11D097F82F3083F0010316
S32D00011E40DBB2002B03D0F86800F0CAF802E0F86800F08EF8F86800F08BF80DE097F82F30002B03D0F86800F022
S32D00011E681DF902E0F86800F07FF8F86800F07CF8FB7E87F82F307B6A01337B62C6E797F82F30002B03D0F86882
S32D00011E9000F008F902E0F86800F06AF8F86800F067F8002387F82F3000233B623B6A042B42DC07F114023B6A89
S32D00011EB813441B7803F00103002B14BF01230023BB76BB7E002B11D097F82F3083F00103DBB2002B03D0F8680F
S32D00011EE000F07EF802E0F86800F042F8F86800F03FF80DE097F82F30002B03D0F86800F0D1F802E0F86800F056
S32D00011F0833F8F86800F030F8BB7E87F82F3007F114023B6A13441B785B08D9B207F114023B6A13440A461A7081
S32D00011F303B6A01333B62B9E7BB6A0133BB625AE7F86800F0AFF8002387F82F300123FB61FB69232B06DCF86849
S32D00011F5800F00AF8FB690133FB61F5E73037BD4680BD00BF3C0B002080B483B000AF7860174B1B68164A43F461
S32D00011F8080331360154B1B68144A23F008031360114B1B68104A43F4802313600E4B1B680D4A23F400331360C4
S32D00011FA80B4B1B680A4A43F400331360094B1B68084A43F008031360054B1B68044A23F48023136000BF0C37D6
S32D00011FD0BD4680BC704700BF40F00F4080F00F4080B483B000AF78602B4B1B682A4A43F480331360294B1B6840
S32D00011FF8284A23F008031360254B1B68244A43F480231360224B1B68214A23F440731360204B1B681F4A23F403
S32D000120207F2323F0F00313601D4B1B681C4A23F01D031360184B1A687B685B6A164913430B60164B1A687B680C
S32D000120489B6A144913430B60134B1A687B68DB6A114913430B600E4B1B680D4A23F4003313600B4B1B680A4A06
S32D0001207043F400331360094B1B68084A43F008031360054B1B68044A23F48023136000BF0C37BD4680BC704744
S32D0001209840F00F4080F00F40C0F00F4080B483B000AF78602B4B1B682A4A43F480331360294B1B68284A23F0A8
S32D000120C008031360254B1B68244A43F480231360224B1B68214A23F440731360204B1B681F4A23F47F2323F00A
S32D000120E8F00313601D4B1B681C4A23F01D031360184B1A687B681B6B164913430B60164B1A687B685B6B144915
S32D0001211013430B60134B1A687B689B6B114913430B600E4B1B680D4A23F4003313600B4B1B680A4A43F4003374
S32D000121381360094B1B68084A43F008031360054B1B68044A23F48023136000BF0C37BD4680BC704740F00F4066
S32D0001216080F00F40C0F00F4080B485B000AF78607B681B6AFB60FB68FB72FB681B0ABB72FB681B0CDBB203F050
S32D0001218803037B727B6800225A627B6800229A627B680022DA627B6800221A637B6800225A637B6800229A63EC
S32D000121B07B681A6BFB7A5B0203F400731A437B681A637B681A6BFB7A5B101B0203F480731A437B681A637B68B0
S32D000121D85A6BFB7A9B101B0103F010031A437B685A637B685A6BFB7ADB105B0103F020031A437B685A637B687A
S32D000122005A6BFB7A1B119B0103F040031A437B685A637B685A6BFB7A5B11DB01DBB21A437B685A637B685A6BE3
S32D00012228FB7A9B111B0303F480531A437B685A637B685A6B97F90B30DB115BB25B0303F400531A437B685A6370
S32D000122507B685A6BBB7A9B0303F480431A437B685A637B685A6BBB7A5B10DB039BB21A437B685A637B685A6B15
S32D00012278BB7A9B101B0403F480331A437B685A637B685A6BBB7ADB105B0403F400331A437B685A637B685A6B9B
S32D000122A0BB7A1B119B0403F480231A437B685A637B685A6BBB7A5B11DB0403F400231A437B685A637B689A6B51
S32D000122C8BB7A9B1103F001031A437B689A637B689A6B97F90A30DB115BB29B0003F004031A437B689A637B6872
S32D000122F09A6B7B7ADB0003F008031A437B689A637B689A6B7B7A5B101B0103F010031A437B689A637B68DB69E1
S32D00012318FB60FB68FB72FB681B0ABB72FB681B0CDBB203F003037B727B685A6AFB7A5B0203F400731A437B6896
S32D000123405A627B685A6AFB7A5B101B0203F480731A437B685A627B689A6AFB7A9B101B0103F010031A437B68BF
S32D000123689A627B689A6AFB7ADB105B0103F020031A437B689A627B689A6AFB7A1B119B0103F040031A437B68BB
S32D000123909A627B689A6AFB7A5B11DB01DBB21A437B689A627B689A6AFB7A9B111B0303F480531A437B689A6289
S32D000123B87B689A6A97F90B30DB115BB25B0303F400531A437B689A627B689A6ABB7A9B0303F480431A437B68B3
S32D000123E09A627B689A6ABB7A5B10DB039BB21A437B689A627B689A6ABB7A9B101B0403F480331A437B689A6218
S32D000124087B689A6ABB7ADB105B0403F400331A437B689A627B689A6ABB7A1B119B0403F480231A437B689A621C
S32D000124307B689A6ABB7A5B11DB0403F400231A437B689A627B68DA6ABB7A9B1103F001031A437B68DA627B6862
S32D00012458DA6A97F90A30DB115BB29B0003F004031A437B68DA627B68DA6A7B7ADB0003F008031A437B68DA62CC
S32D000124807B68DA6A7B7A5B101B0103F010031A437B68DA6200BF1437BD4680BC704780B483B000AF78607B6837
S32D000124A818460C37BD4680BC704780B584B000AFF860B9607A603B60FB682033B968184603F002FDFB687A6804
S32D000124D01A60FB683A689A60FB68BA691A61FB68FA695A61FB681A68FB681B691A44FB685A60FB689A68FB68D3
S32D000124F85B691A44FB68DA60FB683A6A9A61FB687A6ADA61FB680022C3F8E82000BF1037BD4680BDF0B585B00A
S32D0001252002AF78607B689B6919461F48FEF7E3FD7B6819687B689A687B6818697B685B69009303461848FFF7FB
S32D000125488CFA7B68DB6919461548FEF7D0FD7B6803F120047B681B681D467B681B691E467B682033184603F023
S32D0001257027FD024613465B0013449B00F31A5B082B4418467B689A687B685B69113BD90F0B445B1013440246D4
S32D0001259821460348FEF7BEFD00BF0C37BD46F0BDF419002080B584B002AF78607B689B6919461F48FEF79BFDA7
S32D000125C07B681B68591C7B689B685A1C7B681B69981E7B685B69023B009303461648FFF740FA7B681B68991C2F
S32D000125E87B689B689A1C7B681B69181F7B685B69043B009303460E48FFF72FFA7B681B68D91C7B689B68DA1C1C
S32D000126107B681B69981F7B685B69063B009303460548FFF71EFA7B680122C3F8E82000BF0837BD4680BD00BF98
S32D00012638F419002080B584B002AF786000211F48FEF755FD7B681B68D91C7B689B68DA1C7B681B69981F7B684D
S32D000126605B69063B009303461648FFF7FAF97B681B68991C7B689B689A1C7B681B69181F7B685B69043B009355
S32D0001268803460E48FFF7E9F97B681B68591C7B689B685A1C7B681B69981E7B685B69023B009303460548FFF755
S32D000126B0D8F97B680022C3F8E82000BF0837BD4680BD00BFF419002080B584B000AFF860B9607A603B60FB68D7
S32D000126D81B68184602F00AF90246BB681946104602F000FB0346002B00F08180FB685B68184602F0FBF80246DA
S32D00012700BB681946104602F0FBFA0346002B72D0FB689B68184602F0EDF802467B681946104602F0E3FA0346A2
S32D00012728002B64D0FB68DB68184602F0DFF802467B681946104602F0DFFA0346002B56D03A1D07F10803194658
S32D000127502B48FEF745FDFB681B68184602F0CAF80246BB681946104602F0C0FA0346002B3FD0FB685B681846E5
S32D0001277802F0BCF80246BB681946104602F0BCFA0346002B31D0FB689B68184602F0AEF802467B681946104613
S32D000127A002F0A4FA0346002B23D0FB68DB68184602F0A0F802467B681946104602F0A0FA0346002B15D03B681D
S32D000127C8002B10D1FB68D3F8E830002B03D1F868FFF7E8FE07E0FB68D3F8E830002B02D0F868FFF727FF01238B
S32D000127F002E0002300E0002318461037BD4680BDF419002080B586B000AFF860B9607A60BB687B617B683B61BD
S32D0001281879693A690123F868FFF752FF0346002B14BF01230023DBB2002B08D007F1100207F11403194604485F
S32D00012840FEF7CEFCE8E700BF1837BD4680BD00BFF4190020B0B592B004AFF860B9607A603B60FB6C7B633B6879
S32D000128683B63F86C01F0D6FB02460B464FF000004E4901F081FA02460B4614461D46386D01F0C8FB02460B465A
S32D000128902046294601F074FA02460B461046194601F01EFF03463B62386801F0B7FB02460B464FF000004049FF
S32D000128B801F062FA02460B4614461D46B86C01F0A9FB02460B462046294601F055FA02460B461046194601F0A8
S32D000128E0FFFE0346FB61786802F004F803461946386A02F007F90346184602F015FA0346BB61B86801F0F6FF0A
S32D0001290803461946F86902F0F9F80346184602F007FA03467B6100237B620123BB62BA6ABB689A423DDC012354
S32D00012930FB62FA6A7B689A422DDC7B6AEC2202FB03F3FA68D0187A6A13469B0013449B001A467B6D9918FB6D94
